:100000000C94E1000C9409010C9409010C94090171
:100010000C9409010C9409010C9409010C94090138
:100020000C9409010C9409010C9409010C94090128
:100030000C9409010C9409010C9409010C94090118
:100040000C94CE090C9409010C94430C0C94910C63
:100050000C9409010C9409010C9409010C940901F8
:100060000C9409010C9409010000000024002700F1
:100070002A0000000000250028002B0000000000DE
:1000800023002600290004040404040404040202DA
:100090000202020203030303030301020408102007
:1000A0004080010204081020010204081020000012
:1000B0000007000201000003040600000000000029
:1000C000000000407A10F35A00A0724E1809001088
:1000D000A5D4E80000E87648170000E40B540200BD
:1000E00000CA9A3B000000E1F505000080969800E8
:1000F000000040420F000000A08601000000102711
:1001000000000000E80300000000640000000000A0
:100110000A00000000000100000000002C76D888D2
:10012000DC674F0823DFC1DFAE59E1B1B796E5E3E5
:10013000E453C63AE651997696E8E6C28426EB89FE
:100140008C9B62ED407C6FFCEFBC9C9F40F2BAA59B
:100150006FA5F490055A2AF75C936B6CF9676DC133
:100160001BFCE0E40D47FEF520E6B500D0ED902E37
:100170000300943577050080841E080000204E0A95
:10018000000000C80C333333330F986E12831141D3
:10019000EF8D2114893BE65516CFFEE6DB18D1849E
:1001A0004B381BF77C1D901DA4BBE42420328472C5
:1001B0005E228100C9F124ECA1E53D277904FD0D03
:1001C000720411241FBECFEFD8E0DEBFCDBF11E017
:1001D000A0E0B1E0E0EBF8E202C005900D92A83F8C
:1001E000B107D9F713E0A8EFB1E001C01D92AD341B
:1001F000B107E1F711E0C0ECD1E004C02297FE01A5
:100200000E941014CC3BD107C9F70E94530E0C94E6
:100210004B140C940000EF92FF920F931F93F22F58
:10022000F02E47FD02C0E4E001C0E4E1242F3327B3
:1002300027FD309537FF03C0309521953F4F4F2D57
:10024000512F0F2FEE2E0E94ED018F2D912F1F9118
:100250000F91FF90EF9008951F93FC019927882735
:10026000BC01E89411911032E9F3193010F01E30FE
:10027000C8F31B3251F01D3249F4689406C00E9445
:10028000D801610F711D811D911D119110531A30FC
:10029000B0F33EF490958095709561957F4F8F4FA8
:1002A0009F4F1F91089548EF51E00E9485010895E6
:1002B000FB01DC0102C001900D9241505040D8F783
:1002C0000895FB01DC0101900D920020E1F70895F3
:1002D000FB01DC014150504030F08D9101908019BC
:1002E00019F40020B9F7881B990B0895FB01DC0174
:1002F0004150504048F001900D920020C9F701C0D4
:100300001D9241505040E0F70895009731F4DA0112
:100310008D919C91009709F40EC0DC01FB013D9189
:100320002191222319F03217C9F3FACF332331F484
:10033000DA011D921C928827992708951197AF938F
:10034000BF93FB013D912191321771F4332321F4C6
:1003500088279927119702C01E921196FA01A1933E
:10036000B0839F918F910895222369F7EACFFB0113
:100370009F01E8944230C4F04532B4F44A3029F485
:1003800097FB1EF4909581959F4F642F77270E94CD
:10039000FA13805D8A330CF0895D8193CB0100975D
:1003A000A1F716F45DE251931082C9010C94270461
:1003B000592F482F372F262F660F771F881F991F19
:1003C000660F771F881F991F620F731F841F951F69
:1003D000660F771F881F991F0895A9E0B0E0E3EF2B
:1003E000F1E00C9418146A01122FA02EBE2C2BE3FE
:1003F000201718F42CE3922E02C0902E9394AE0195
:100400004F5F5F4F27E0092D0E944F03BC01898198
:10041000E82EFF24C70189709070019711F4ADE2B6
:1004200009C0B1FE02C0ABE205C0B0FC02C0A0E052
:1004300001C0A0E2E3FE3BC0AA2311F423E001C007
:1004400024E0211710F020E002C0121B212FEB2C1A
:10045000B4FE02C0322F0AC0F601322F80E202C081
:10046000819331503323E1F7C20ED11CAA2319F036
:10047000F601A1936F01F6013196E2FE05C09EE4FC
:10048000D6019C9381E404C09EE6D6019C9381E64C
:1004900011968C9391833296DF01832F90E202C0F4
:1004A0009D9381508823E1F7E30FF11D40C0E2FEE8
:1004B00042C0AA2311F423E001C024E0211710F068
:1004C00020E002C0121B212FEB2CB4FE02C0922FA1
:1004D0000AC0F601922F80E202C0819391509923C5
:1004E000E1F7C20ED11CAA2319F0F601A1936F0106
:1004F000F6013196E2FE08C089E4D6018C938EE4C1
:1005000011968C9386E407C089E6D6018C938EE61B
:1005100011968C9386E681833296DF01892F20E243
:1005200002C02D9381508823E1F7E90FF11D10825D
:100530002EEF3FEFAFC0161617061CF041E050E05B
:1005400003C0AB014F5F5F4FAA2019F480E090E039
:1005500003C08A2D90E0019620E030E0AA2311F03C
:1005600021E030E0240F351F280F391F812F90E044
:100570002817390714F020E002C0121B212F4B2D41
:1005800050E0CA0180719070B4FC0DC0B3FC0BC088
:10059000F601322F40E202C0419331503323E1F79C
:1005A000C20ED11C01C0322FAA2319F0F601A1936B
:1005B0006F01892B11F0132F0AC0F601132F80E36E
:1005C00002C0819311501123E1F7C30ED11C092DF4
:1005D000060FBA8090E1892E912C8E209F20E4FE98
:1005E00004C0F1E3BF1609F40150101614F001E045
:1005F00003C0093008F008E09B0177FF02C020E04B
:1006000030E0CB010196821B930BFE013196E80F7F
:10061000F91F8EE2F82E3B01601A71088A2D90E0D6
:1006200044275527481B590B8FEF2F3F380719F4E4
:10063000D601FD926D01621773072CF062167306E6
:1006400014F4808101C080E321503040319624179A
:10065000350724F0D6018D936D01E6CF26173707B5
:1006600049F4B5E3BB1528F0BB1621F481149104BD
:1006700009F481E3F6018193D601812F90E202C053
:100680009C93815011968823D9F7E10FF11D1082B8
:1006900020E030E0C9012996EEE00C9434142830B3
:1006A00008F027E03327DA01990F311D87FD9160AB
:1006B00000966105710539F432602E5F3D9330E399
:1006C0002A95E1F708959F3F30F080387105610564
:1006D00009F03C5F3C5F3D93913008F08068911DCC
:1006E000DF93CF931F930F93FF92EF92192F987F71
:1006F0009695E92F96959695E90FFF27E45EFE4FB4
:1007000099273327EE24FF24A701E70105900894D9
:10071000079428F4360FE71EF81E491F511D660F77
:10072000771F881F991F0694A1F70590079428F456
:10073000E70EF81E491F561FC11D770F881F991F0E
:10074000661F0694A1F70590079428F4F80E491F38
:10075000561FC71FD11D880F991F661F771F06944C
:10076000A1F70590079420F4490F561FC71FD81F03
:10077000990F661F771F881F0694A9F7849110951B
:10078000177041F0D695C79557954795F794E7941C
:100790001A95C1F7E2ECF0E0689415901591359147
:1007A0006591959105907FE27395E118F10A430BED
:1007B000560BC90BD009C0F7E10CF11E431F561FA1
:1007C000C91FD01D7EF4703311F48A95E6CFE894EA
:1007D000015030F0080F0AF40027021708F4202F08
:1007E0002395022F7A3328F079E37D932A95E9F750
:1007F00010C07D932A9589F606949795679537954D
:1008000017951794E118F10A430B560BC90BD00941
:1008100098F023957E9173957A3308F070E37C937A
:100820002013B8F77E9170617D9330F0839571E36A
:100830007D9370E32A95E1F71124EF90FF900F91DB
:100840001F91CF91DF91992787FD90950895DC0145
:10085000FC01672F71917723E1F7329704C07C91F7
:100860006D9370836291AE17BF07C8F30895CF935D
:10087000DF9381309105E1F46F5F7F4F81F5CCE626
:10088000D2E0CE0160E071E00E945210279682E033
:10089000C838D807B1F788E892E060E071E00E94BC
:1008A00052108FE892E061E071E00E94521017C090
:1008B000892BA9F46F5F7F4F91F48FE892E00E943B
:1008C000B21088E892E00E94B210C1E8D2E0CE01F6
:1008D0000E94B210279782E0C536D807C1F7DF9192
:1008E000CF91089580E090E06FEF7FEF0E94370492
:1008F000089581E090E06FEF7FEF0E943704089544
:100900008F929F92AF92BF92CF92DF92EF92FF921F
:100910000F931F93DF93CF93CDB7DEB7A6970FB694
:10092000F894DEBF0FBECDBF4C014B30510529F40A
:100930008AEF91E00E942B090FC04531510529F43F
:100940008AEF91E00E94CB0907C046315105E1F4DE
:100950008AEF91E00E9469092FEF8F3F920731F0F3
:10096000009791F08E5F9F4F49F404C0C40166E088
:1009700071E007C0C40165E171E003C0C40164E235
:1009800071E00E94521057C06091FA017091FB0112
:100990008091FC019091FD012DE1E22EF12CEC0EF5
:1009A000FD1E45E022E087010E940B01BC015E01B3
:1009B0000894A11CB11CC5010E9452106091FE0157
:1009C0007091FF01809100029091010245E022E0C8
:1009D0000E940B01BC0198E0C92ED12CCC0EDD1E6B
:1009E000C6010E94521086E1E82EF12CEC0EFD1E8D
:1009F000C701B5010E94A710C70162E371E00E9420
:100A0000FF0FB6010E941B10BC018E01015F1F4F3A
:100A1000C8010E949C10C7010E94B810C401B8010F
:100A20000E949C10C8010E94B210C6010E94B21020
:100A3000C5010E94B210C401A6960FB6F894DEBF9D
:100A40000FBECDBFCF91DF911F910F91FF90EF901F
:100A5000DF90CF90BF90AF909F908F9008950F93AD
:100A60001F93CF93DF93182F092F60E071E00E944E
:100A70005210C0E0D0E08C2F0E94DA0ABC01812F16
:100A8000902F0E94910FC730D10521F0812F902F18
:100A90006CE203C0812F902F6CE70E94C20F219659
:100AA000C830D10541F7C2E0D0E08C2F0E94EF0B97
:100AB000BC01812F902F0E94910FC930D10529F0E0
:100AC000812F902F6CE20E94C20F2196CA30D1056F
:100AD00061F7812F902FDF91CF911F910F91089592
:100AE000EF92FF920F931F93DF93CF93CDB7DEB7B3
:100AF000EDB6FEB6AC014F5F5F4F8DB79EB7841B5E
:100B0000950B0FB6F8949EBF0FBE8DBF0DB71EB7E5
:100B10000F5F1F4F88E892E0B80120E030E00E94AC
:100B2000CB0EC80164E371E00E945301BC0100E0F8
:100B300010E015C0C80133E0880F991F3A95E1F71E
:100B4000801B910B84599D4F0E946C100F5F1F4FAB
:100B500080E090E064E371E00E945301BC01611504
:100B6000710541F70FB6F894FEBE0FBEEDBECF91F2
:100B7000DF911F910F91FF90EF900895BF92CF9258
:100B8000DF92EF92FF920F931F93CF93DF93D82EB4
:100B90008BE090E09C01629FC001639F900D729F6B
:100BA000900D11248C509E4FB82EC92E68E17CEF19
:100BB0000E94C5136C5E7F4F7B010027F7FC0095F8
:100BC000102FC0E0D0E08D2D61E00E949B0B8B2D9B
:100BD0009C2D0E94950A8D2D60E00E949B0BC80100
:100BE000B7010E943C0A2196C333D10561F7DF911A
:100BF000CF911F910F91FF90EF90DF90CF90BF901A
:100C00000895EF92FF920F931F937C0107E213E088
:100C1000C80160E40E948C0EC801B7010E94B00EAA
:100C2000C8016EE70E948C0E1F910F91FF90EF900C
:100C300008952F923F924F925F926F927F928F9280
:100C40009F92AF92BF92CF92DF92EF92FF920F935B
:100C50001F93DF93CF93CDB7DEB7C455D0400FB607
:100C6000F894DEBF0FBECDBFBC012DB63EB68E01DF
:100C70000F5F1F4FC8010E94521088E892E0B80130
:100C80000E948510C8010E94B21088E892E06FE8C7
:100C900072E00E941B0F882309F4E4C180918C024A
:100CA00090918D020E9470058E01085F1F4FC80150
:100CB00066E371E00E94521083E792E0B8010E945F
:100CC0001B0FF82EC8010E94B210FF2009F452C079
:100CD0005DB64EB68AE792E00E94BA0E3B014C0127
:100CE00081E892E00E94BA0E5B016C01AEE4EA2E4C
:100CF000F12CEC0EFD1EC7016CE371E00E94521056
:100D00008E01015F1F4FC801B301A5010E9480043D
:100D1000C701B8010E94E50FC8010E94B210C701C7
:100D200067E471E00E94D50FC7016FE872E00E948E
:100D3000E50FF701448155814F5F5F4F8DB79EB737
:100D4000841B950B0FB6F8949EBF0FBE8DBF0DB7D9
:100D50001EB70F5F1F4FC701B80120E030E00E94AF
:100D6000CB0EC8010E940106C7010E94B210252DBA
:100D7000342D72C18E010A5E1F4FC80169E471E013
:100D80000E94521083E792E0B8010E941B0FF82ED8
:100D9000C8010E94B210FF20D1F0DDB6CEB6FEE44D
:100DA000EF2EF12CEC0EFD1EC70160E571E00E94F4
:100DB00052108E01035E1F4FC8010E942F05C7010C
:100DC000B8010E94E50FC8010E94B210BBC08E019D
:100DD0000C5D1F4FC8016BE571E00E94521083E764
:100DE00092E0B8010E941B0FF82EC8010E94B210B9
:100DF000FF2061F1BDB6AEB681E892E00E94BA0E66
:100E00007B018C01EEE4CE2ED12CCC0EDD1EC60172
:100E100061E671E00E945210EF2849F48AE792E0FF
:100E20000E94BA0E862F60E00E945C0B56C08AE7D3
:100E300092E00E94BA0E862F61E00E945C0B8E0148
:100E4000055D1F4FC80163E771E03EC08E010E5C77
:100E50001F4FC80166E871E00E94521083E792E0DC
:100E6000B8010E941B0FF82EC8010E94B210FF208B
:100E7000D1F1BDB6AEB681E892E00E94BA0E7B0118
:100E80008C017EE4C72ED12CCC0EDD1EC6016CE891
:100E900071E00E945210EF2849F48AE792E00E9424
:100EA000BA0E862F60E00E949B0B17C08AE792E083
:100EB0000E94BA0E862F61E00E949B0B8E01075C98
:100EC0001F4FC8016CE971E00E945210C601B801C1
:100ED0000E948510C8010E94B2106EE4E62EF12C2B
:100EE000EC0EFD1E8FC08E01005C1F4FC8016DEA25
:100EF00071E00E94521083E792E0B8010E941B0F3C
:100F0000F82EC8010E94B210FF2009F446C0DDB6D9
:100F1000CEB68AE792E00E94BA0E162F81E892E0E0
:100F20000E94BA0E9B01AC01812FB9010E94FC0AFC
:100F30005EE4E52EF12CEC0EFD1EC70164EB71E0C2
:100F40000E945210C70167E471E00E94D50FC701EB
:100F50006FE872E00E94E50FF701448155814F5F11
:100F60005F4F8DB79EB7841B950B0FB6F8949EBF4D
:100F70000FBE8DBF0DB71EB70F5F1F4FC701B80162
:100F800020E030E00E94CB0EC8010E940106C7019C
:100F90000E94B2102D2D3C2D5FC08E01095B1F4FAA
:100FA000C80162EC71E00E94521083E792E0B80140
:100FB0000E941B0FF82EC8010E94B210FF2009F4F6
:100FC00055C0BDB6AEB68AE792E00E94BA0ED62EE4
:100FD000C72E81E892E00E94BA0E7B018C018D2D14
:100FE00061E00E945C0B8D2D9C2DB7010E94BE0517
:100FF0004EE4E42EF12CEC0EFD1EC70169EC71E00D
:101000000E945210C70167E471E00E94D50FC7012A
:101010006FE872E00E94E50FF701448155814F5F50
:101020005F4F8DB79EB7841B950B0FB6F8949EBF8C
:101030000FBE8DBF0DB71EB70F5F1F4FC701B801A1
:1010400020E030E00E94CB0EC8010E940106C701DB
:101050000E94B2102B2D3A2D0FB6F8943EBF0FBE52
:101060002DBF04C087ED91E00E9401060FB6F894F1
:101070003EBE0FBE2DBECC5ADF4F0FB6F894DEBF7A
:101080000FBECDBFCF91DF911F910F91FF90EF90D9
:10109000DF90CF90BF90AF909F908F907F906F9098
:1010A0005F904F903F902F90089587E293E00E94C9
:1010B000530D892B01F187E293E00E94840D809308
:1010C000DF01803419F410926B0215C08E3729F4B9
:1010D00087E092E00E9419060EC0A0916B02EA2FF1
:1010E000F0E0E95FFD4F8083AF5FA0936B02B0E05B
:1010F000A95FBD4F1C9264E170E080E090E00E9427
:101100003C0A089587E293E040E855E260E070E031
:101110000E94CC0C08956F927F928F929F92AF9213
:10112000BF92CF92DF92EF92FF920F931F93CF93D4
:10113000DF936C01B62EFC01108611861286138691
:101140001486862F61E00E945C0B8B2D60E00E946C
:101150009B0B64E170E080E090E00E943C0A8B2DE4
:1011600061E00E949B0B88E290E00E94950A8B2D23
:1011700060E00E945C0BC0E1D7E203C0209769F1F8
:1011800021978B2D0E94EF0B892BC1F3C0E1D7E291
:1011900003C0209711F121978B2D0E94EF0B01972F
:1011A000C1F304C02097C9F0219709C027E0A22EFF
:1011B0008824992491E0692E712CC0E1D7E28B2D0F
:1011C0000E94EF0B892B71F30E94160A7B018C01A0
:1011D000C0E1D7E206C0209719F42EEF3FEF2BC0F5
:1011E00021978B2D0E94EF0B0197A9F30E94160AFD
:1011F0006E197F09800B910B69327105810591058C
:1012000068F0F601E80DF11D93010A2C02C0220FCF
:10121000331F0A94E2F78085822B8087AA2021F46D
:10122000839487E0A82E01C0AA949394F8E29F16B5
:1012300021F620E030E0C901DF91CF911F910F919D
:10124000FF90EF90DF90CF90BF90AF909F908F90E6
:101250007F906F900895EF92FF920F931F93CF931B
:10126000DF93EC010E948B087C01009769F080E01D
:1012700090ECA9E7B4EC88839983AA83BB838C8321
:101280009D83AE83BF831DC00885602F70E080E022
:1012900090E00E94D412688379838A839B831A85A5
:1012A000612F70E080E090E00E94D4126C837D8317
:1012B0008E839F83100F8C85811719F0EE24EA949A
:1012C000FE2CC701DF91CF911F910F91FF90EF90FE
:1012D00008950F931F93CF93DF93EC010E948B0827
:1012E0008C01009769F080E090ECA9E7B4EC88836A
:1012F0009983AA83BB838C839D83AE83BF8345C0C0
:10130000888569850E94B30EA0E0B0E0BC01CD01E4
:101310000E94D4122DEC3CEC4CEC5DE30E94621375
:10132000688379838A839B838A8587FF0FC08F7741
:101330006B850E94B30EA0E0B0E0BC01CD010E941D
:10134000D4122DEC3CEC4CEC5DEB0DC06B850E9497
:10135000B30EA0E0B0E0BC01CD010E94D4122DEC90
:101360003CEC4CEC5DE30E9462136C837D838E83C6
:101370009F8389859885890F9A85890F9B85890F19
:101380009C85981711F00FEF1FEFC801DF91CF91E7
:101390001F910F9108950E94690908951F920F925D
:1013A0000FB60F9211242F933F938F939F93AF9378
:1013B000BF9380919A0290919B02A0919C02B09160
:1013C0009D0230919E020196A11DB11D232F2D5F1C
:1013D0002D3720F02D570196A11DB11D20939E029F
:1013E00080939A0290939B02A0939C02B0939D02DB
:1013F0008091960290919702A0919802B0919902E3
:101400000196A11DB11D8093960290939702A0931F
:101410009802B0939902BF91AF919F918F913F91A4
:101420002F910F900FBE0F901F9018959FB7F894B3
:101430002091960230919702409198025091990222
:1014400086B5A89B06C08F3F21F02F5F3F4F4F4FBF
:101450005F4F9FBF542F432F322F2227280F311D5C
:10146000411D511D82E0220F331F441F551F8A95D5
:10147000D1F7B901CA0108959B01AC017FB7F89477
:101480008091960290919702A0919802B091990252
:1014900066B5A89B05C06F3F19F00196A11DB11D4F
:1014A0007FBFBA2FA92F982F8827860F911DA11DC6
:1014B000B11D62E0880F991FAA1FBB1F6A95D1F763
:1014C000BC012DC0FFB7F8948091960290919702CD
:1014D000A0919802B0919902E6B5A89B05C0EF3F94
:1014E00019F00196A11DB11DFFBFBA2FA92F982F8A
:1014F00088278E0F911DA11DB11DE2E0880F991F55
:10150000AA1FBB1FEA95D1F7861B970B885E9340F5
:10151000C8F2215030404040504068517C4F211566
:1015200031054105510571F60895019739F0880F8D
:10153000991F880F991F02970197F1F708957894E2
:1015400084B5826084BD84B5816084BD85B58260C8
:1015500085BD85B5816085BDEEE6F0E08081816066
:101560008083E1E8F0E01082808182608083808166
:1015700081608083E0E8F0E0808181608083E1EB3E
:10158000F0E0808184608083E0EBF0E08081816026
:101590008083EAE7F0E080818460808380818260DC
:1015A00080838081816080838081806880831092C5
:1015B000C1000895982F8E3008F09E50977080914A
:1015C000E0018295880F880F807C892B80937C00B6
:1015D00080917A00806480937A0080917A0086FD01
:1015E000FCCF2091780040917900942F80E030E08A
:1015F000282B392BC90108951F93CF93DF93182F00
:10160000EB0161E00E945C0B209709F44AC0CF3FD8
:10161000D10509F449C0E12FF0E0E255FF4F849174
:101620008330C1F0843028F4813051F08230B1F53C
:101630000CC0863019F1873049F1843079F514C037
:1016400084B5806884BDC7BD33C084B5806284BD65
:10165000C8BD2EC080918000806880938000D093A8
:101660008900C093880024C08091800080628093AC
:101670008000D0938B00C0938A001AC08091B00084
:1016800080688093B000C093B30012C08091B00016
:1016900080628093B000C093B4000AC0C038D10506
:1016A0001CF4812F60E002C0812F61E00E949B0B3F
:1016B000DF91CF911F910895CF93DF93482F50E092
:1016C000CA0186569F4FFC0134914A575F4FFA0179
:1016D0008491882369F190E0880F991FFC01E859F3
:1016E000FF4FA591B491FC01EE58FF4FC591D491E5
:1016F000662351F42FB7F8948C91932F90958923FA
:101700008C93888189230BC0623061F42FB7F894E1
:101710008C91932F909589238C938881832B888338
:101720002FBF06C09FB7F8948C91832B8C939FBFDB
:10173000DF91CF910895482F50E0CA0182559F4F05
:10174000FC012491CA0186569F4FFC0194914A578F
:101750005F4FFA013491332309F440C0222351F141
:10176000233071F0243028F42130A1F0223011F51B
:1017700014C02630B1F02730C1F02430D9F404C0B1
:10178000809180008F7703C0809180008F7D80934F
:10179000800010C084B58F7702C084B58F7D84BD72
:1017A00009C08091B0008F7703C08091B0008F7D19
:1017B0008093B000E32FF0E0EE0FFF1FEE58FF4FD5
:1017C000A591B4912FB7F894662321F48C9190954C
:1017D000892302C08C91892B8C932FBF0895682F89
:1017E00070E0CB0182559F4FFC012491CB018656BE
:1017F0009F4FFC0144916A577F4FFB0194919923BD
:1018000019F420E030E03CC0222351F1233071F084
:10181000243028F42130A1F0223011F514C02630F4
:10182000B1F02730C1F02430D9F404C08091800099
:101830008F7703C0809180008F7D8093800010C0DF
:1018400084B58F7702C084B58F7D84BD09C0809137
:10185000B0008F7703C08091B0008F7D8093B0007F
:10186000892F90E0880F991F84589F4FFC01A59104
:10187000B4918C9120E030E0842311F021E030E03D
:10188000C901089508951F920F920FB60F92112467
:101890002F933F934F938F939F93EF93FF93809159
:1018A000C00082FD1DC04091C6002091DF02309132
:1018B000E0022F5F3F4F2F7330708091E1029091D3
:1018C000E2022817390771F0E091DF02F091E0029F
:1018D000E156FD4F40833093E0022093DF0202C0C7
:1018E0008091C600FF91EF919F918F914F913F9111
:1018F0002F910F900FBE0F901F901895E09133031A
:10190000F0913403E05CFF4F81919191208131810E
:10191000821B930B8F739070892B11F00E94420CE5
:1019200008951F920F920FB60F9211242F933F9399
:101930008F939F93EF93FF93209123033091240380
:1019400080912503909126032817390731F480915F
:10195000C1008F7D8093C10014C0E0912503F091F8
:101960002603ED51FD4F20818091250390912603A0
:1019700001968F7390709093260380932503209394
:10198000C600FF91EF919F918F913F912F910F9002
:101990000FBE0F901F901895AF92BF92DF92EF92FB
:1019A000FF920F931F93CF93DF93EC017A018B018A
:1019B000DD24403081EE580780E0680780E078073A
:1019C00011F0DD24D39491E0A92EB12CEC89FD898E
:1019D000DD2069F0C50108A002C0880F991F0A9494
:1019E000E2F7808360E079E08DE390E005C010824B
:1019F00060E874E88EE190E0A80197010E94D81396
:101A00002150304040405040569547953795279596
:101A100080E12030380720F0DD2011F0DD24D6CF22
:101A2000E889F9893083EA89FB89208319A2EE8944
:101A3000FF89408121E030E0C9010C8C02C0880F91
:101A4000991F0A94E2F7482B4083EE89FF89408171
:101A5000C9010D8C02C0880F991F0A94E2F7482B28
:101A60004083EE89FF894081C9010E8C02C0880F36
:101A7000991F0A94E2F7482B4083EE89FF89808101
:101A80000F8C02C0220F331F0A94E2F720952823FF
:101A90002083DF91CF911F910F91FF90EF90DF9006
:101AA000BF90AF900895DC011C96ED91FC911D97BD
:101AB000E05CFF4F2191319180819181281B390B8E
:101AC0002F733070C9010895DC011C96ED91FC91D3
:101AD0001D97E05CFF4F20813181E054F040DF0131
:101AE000AE5BBF4F8D919C9111972817390719F460
:101AF0002FEF3FEF07C08D919C91E80FF91F808178
:101B0000282F30E0C9010895DC011C96ED91FC916D
:101B10001D97E05CFF4F20813181E054F040DF01F0
:101B2000AE5BBF4F8D919C9111972817390719F41F
:101B30002FEF3FEF10C08D919C911197E80FF91F87
:101B400020818D919C91119701968F7390701196C1
:101B50009C938E9330E0C9010895DC0191968C919D
:101B60009197882339F05496ED91FC915597808197
:101B700086FFF9CF91961C920895CF93DF93EC01E5
:101B8000EE85FF85E05CFF4F20813181E054F0401D
:101B90002F5F3F4F2F733070DF01AE5BBF4F8D91D2
:101BA0009C91119728173907D1F3E05CFF4F808192
:101BB0009181E054F040E80FF91F6083EE85FF85C6
:101BC000E05CFF4F31832083EE89FF89208181E033
:101BD00090E00F8C02C0880F991F0A94E2F7282B1F
:101BE000208381E089A3EC89FD89808180648083E2
:101BF00081E090E0DF91CF91089510922A03109236
:101C0000290388EE93E0A0E0B0E080932B0390934B
:101C10002C03A0932D03B0932E038BEE91E09093B1
:101C20002803809327038FE992E0909334038093F5
:101C3000330383EE92E0909336038093350385EC73
:101C400090E0909338038093370384EC90E0909376
:101C50003A038093390380EC90E090933C038093A7
:101C60003B0381EC90E090933E0380933D0382EC34
:101C700090E09093400380933F0386EC90E0909334
:101C800042038093410384E08093430383E0809385
:101C9000440387E08093450385E08093460381E019
:101CA000809347030895CF93DF930E949F0A0E9479
:101CB0008208CEE7DCE00E9455082097E1F30E94FD
:101CC0007E0CF9CFCF92DF92EF92FF920F931F938A
:101CD000CF93DF937C016B018A01C0E0D0E00FC09D
:101CE000D6016D916D01D701ED91FC910190F081CC
:101CF000E02DC7010995C80FD91F015010400115EB
:101D0000110571F7CE01DF91CF911F910F91FF90D7
:101D1000EF90DF90CF900895DC01ED91FC91019060
:101D2000F081E02D09950895CF93DF93EC016115C3
:101D3000710519F420E030E00FC0DB010D900020A8
:101D4000E9F71197A61BB70BE881F9810280F381AF
:101D5000E02DAD0109959C01C901DF91CF91089556
:101D60000E94940E089570E0382F20E0622B732BB0
:101D7000CB010895FC0180819181009729F420E036
:101D800030E040E050E004C00E942C019B01AC0117
:101D9000B901CA0108950F931F93CF93DF93FC01FC
:101DA0008B0141155105F9F061157105E1F0848150
:101DB00095812817390718F0FB01108214C0415093
:101DC0005040EC01C21BD30B4C175D0708F4EA012D
:101DD00060817181620F731FC801AE010E9476019C
:101DE000C00FD11F1882DF91CF911F910F910895DD
:101DF000FC01DB0114962D913C911597848195810E
:101E0000821B930B84179507A0F080819181009726
:101E100081F06D917C916115710559F0840F951FCA
:101E2000A9010E9468019C0180E0232B19F481E044
:101E3000089580E00895FC01DB012481358114962A
:101E40008D919C9115972817390710F480E008951B
:101E5000CF0140E050E00E94F80E08950F931F93C9
:101E6000CF93DF93EC018B016F5F7F4F8881998166
:101E70000E94F311009711F480E005C099838883D4
:101E80001B830A8381E0DF91CF911F910F91089509
:101E9000CF93DF93EC0188819981892B29F08A8186
:101EA0009B818617970760F4CE010E942E0F88232E
:101EB00041F08C819D81892B19F4E881F981108290
:101EC00081E0DF91CF910895EF92FF920F931F93DE
:101ED000CF93DF93EC017B016C817D81E114F104F0
:101EE000C1F04115510599F08A01060F171FB8017D
:101EF0000E94480F882369F0888199812C813D8157
:101F0000820F931FB7010E9461011D830C8381E042
:101F100001C080E0DF91CF911F910F91FF90EF9072
:101F20000895EF92FF920F931F93DF93CF93CDB756
:101F3000DEB727970FB6F894DEBF0FBECDBF7C018A
:101F4000CB018E010F5F1F4FB8014AE050E00E94A5
:101F5000B701F80101900020E9F73197E01BF10B80
:101F6000C701B801AF010E94640F27960FB6F8941D
:101F7000DEBF0FBECDBFCF91DF911F910F91FF90BC
:101F8000EF900895DF93CF9300D0CDB7DEB769838C
:101F90001A82BE016F5F7F4F41E050E00E94640FE4
:101FA0000F900F90CF91DF9108956115710511F495
:101FB00080E00895DB010D900020E9F71197A61B42
:101FC000B70BAD010E94640F0895FB016081718120
:101FD000448155810E94640F0895CF93DF93EC01F3
:101FE00088819981009711F00E945B1119821882F3
:101FF0001D821C821B821A82DF91CF9108950F935C
:102000001F93182F092F6115710561F0DB010D90E9
:102010000020E9F71197A61BB70BAD010E94640FD2
:10202000882321F4812F902F0E94ED0F812F902F74
:102030001F910F9108950F931F93182F092FFB01E4
:1020400060817181448155810E94640F882321F44D
:10205000812F902F0E94ED0F812F902F1F910F91B4
:102060000895EF92FF920F931F93CF93DF93EC01AC
:102070007B018A01BA010E94480F882321F4CE0116
:102080000E94ED0F07C01D830C8388819981B701E1
:102090000E946101CE01DF91CF911F910F91FF90BE
:1020A000EF900895CF93DF93EC01198218821B8281
:1020B0001A821D821C821E826115710551F0DB019E
:1020C0000D900020E9F71197A61BB70BAD010E94F8
:1020D0003110DF91CF9108950F931F93182F092F7F
:1020E0006115710559F0DB010D900020E9F711979A
:1020F000A61BB70BAD010E94311002C00E94ED0F6C
:10210000812F902F1F910F910895CF93DF93EC01B2
:10211000FB018617970761F0608171816115710578
:1021200029F0448155810E94311002C00E94ED0FB8
:10213000CE01DF91CF910895FC01118210821382AC
:1021400012821582148216820E9485100895FC0165
:1021500011821082138212821582148216820E94CA
:1021600085100895FC01808191810E945B11089582
:10217000FC01808191810E945B1108950F931F9350
:10218000CF93DF93BC018230910510F462E070E0E0
:10219000E0914B03F0914C0340E050E0A0E0B0E050
:1021A00024C08081918186179707D0F08617970702
:1021B00071F482819381109729F013969C938E93EA
:1021C00012972CC090934C0380934B0327C041156A
:1021D000510519F08417950718F48D01AC01EF0132
:1021E000DF01828193819C01F9013097D1F641157D
:1021F0005105F9F0CA01861B970B8430910580F4D4
:102200008A819B810115110521F0F8019383828356
:1022100004C090934C0380934B03FE01329645C05B
:10222000FE01E80FF91F61937193029799838883E8
:102230003CC08091490390914A03892B41F48091DD
:10224000E3019091E40190934A0380934903409104
:10225000E5015091E6014115510541F44DB75EB7D6
:102260008091E1019091E201481B590B20914903B3
:1022700030914A0324173507B0F4CA01821B930B2F
:102280008617970780F0AB014E5F5F4F8417950765
:1022900050F0420F531F50934A0340934903F901F2
:1022A0006193719302C0E0E0F0E0CF01DF91CF9144
:1022B0001F910F910895CF93DF939C01009709F42C
:1022C0008FC0EC0122971B821A8260914B037091A0
:1022D0004C036115710581F488819981820F931FE8
:1022E0002091490330914A032817390739F5D093D3
:1022F0004A03C093490374C0DB0140E050E0AC17CF
:10230000BD0708F1BB83AA83FE0121913191E20F41
:10231000F31FAE17BF0779F48D919C911197280F89
:10232000391F2E5F3F4F3983288312968D919C91E0
:1023300013979B838A834115510571F4D0934C0305
:10234000C0934B034DC012968D919C911397AD0194
:10235000009711F0DC01D3CFDA011396DC93CE9312
:102360001297FA0121913191E20FF31FCE17DF0787
:1023700069F488819981280F391F2E5F3F4FFA0138
:10238000318320838A819B8193838283E0E0F0E024
:10239000DB0112968D919C911397009719F0BC0167
:1023A000FD01F6CFAB014E5F5F4FDB018D919C913C
:1023B000840F951F2091490330914A03281739074C
:1023C00079F4309729F410924C0310924B0302C019
:1023D000138212824250504050934A034093490363
:1023E000DF91CF9108956F927F928F929F92AF92DB
:1023F000BF92CF92DF92EF92FF920F931F93CF93F2
:10240000DF938C01009729F4CB010E94BE108C0150
:10241000BBC08EEFE82E8FEFF82EE00EF11E4801C4
:10242000860E971E8E149F0408F4ACC0D7014D9100
:102430005C91119746175707B8F04530510508F4DD
:10244000A3C0CA0104978617970708F49DC042509D
:102450005040461B570BF401419351936D937C936D
:10246000CF010E945B1190C05B01A41AB50A38012C
:10247000640E751EA0914B03B0914C03E0E0F0E0B8
:10248000CC24DD2447C0A615B705A9F5CD91DC9174
:102490001197CE0102968A159B0568F1CE018A1923
:1024A0009B09029612962C91129713963C910597D0
:1024B00058F0F40122833383CA19DB09D183C08326
:1024C000D7016D937C9309C04E5F5F4F4C0F5D1F2A
:1024D000F70151834083C901FC01C114D10431F0DB
:1024E000D6011396FC93EE9312974EC0F0934C03D3
:1024F000E0934B0349C08D919C911197E817F90720
:1025000008F4FC016D0112968C91129713969C9120
:102510009C01D901109709F0B6CF809149039091A1
:102520004A0386159705E9F4E617F707D0F42091DA
:10253000E5013091E6012115310541F42DB73EB793
:102540008091E1019091E201281B390B82169306DC
:10255000C8F490924A0380924903F7017183608323
:1025600013C0CB010E94BE10EC01009759F0D701B7
:102570004D915C91B8010E945801C8010E945B1105
:102580008E0102C000E010E0C801DF91CF911F91E1
:102590000F91FF90EF90DF90CF90BF90AF909F9002
:1025A0008F907F906F900895E89409C097FB3EF458
:1025B00090958095709561957F4F8F4F9F4F992390
:1025C000A9F0F92F96E9BB279395F695879577950E
:1025D0006795B795F111F8CFFAF4BB0F11F460FFCE
:1025E0001BC06F5F7F4F8F4F9F4F16C0882311F026
:1025F00096E911C0772321F09EE8872F762F05C03A
:10260000662371F096E8862F70E060E02AF09A95D4
:10261000660F771F881FDAF7880F9695879597F9C9
:10262000089597F99F6780E870E060E008959FEF54
:1026300080EC089500240A94161617061806090659
:10264000089500240A941216130614060506089528
:10265000092E0394000C11F4882352F0BB0F40F4B0
:10266000BF2B11F460FF04C06F5F7F4F8F4F9F4FF0
:10267000089557FD9058440F551F59F05F3F71F072
:102680004795880F97FB991F61F09F3F79F08795D9
:102690000895121613061406551FF2CF4695F1DF62
:1026A00008C0161617061806991FF1CF86957105F2
:1026B000610508940895E894BB2766277727CB0126
:1026C00097F908950BD0C4CFB5DF28F0BADF18F022
:1026D000952309F0A6CFABCF1124EECFCADFA0F32C
:1026E000959FD1F3950F50E0551F629FF001729FA7
:1026F000BB27F00DB11D639FAA27F00DB11DAA1FC6
:10270000649F6627B00DA11D661F829F2227B00D12
:10271000A11D621F739FB00DA11D621F839FA00D9D
:10272000611D221F749F3327A00D611D231F849FED
:10273000600D211D822F762F6A2F11249F57504044
:102740008AF0E1F088234AF0EE0FFF1FBB1F661FDF
:10275000771F881F91505040A9F79E3F510570F098
:1027600060CFAACF5F3FECF3983EDCF38695779578
:102770006795B795F795E7959F5FC1F7FE2B880F93
:10278000911D9695879597F9089597FB092E072631
:102790000AD077FD04D02ED006D000201AF4709510
:1027A00061957F4F0895F6F7909581959F4F089515
:1027B000A1E21A2EAA1BBB1BFD010DC0AA1FBB1F45
:1027C000EE1FFF1FA217B307E407F50720F0A21BB7
:1027D000B30BE40BF50B661F771F881F991F1A9424
:1027E00069F760957095809590959B01AC01BD014E
:1027F000CF010895AA1BBB1B51E107C0AA1FBB1F35
:10280000A617B70710F0A61BB70B881F991F5A957C
:10281000A9F780959095BC01CD010895EE0FFF1F9B
:102820000590F491E02D09942F923F924F925F9280
:102830006F927F928F929F92AF92BF92CF92DF92D0
:10284000EF92FF920F931F93CF93DF93CDB7DEB735
:10285000CA1BDB0B0FB6F894DEBF0FBECDBF0994C9
:102860002A88398848885F846E847D848C849B8420
:10287000AA84B984C884DF80EE80FD800C811B812E
:10288000AA81B981CE0FD11D0FB6F894DEBF0FBE5D
:10289000CDBFED01089511E0C0ECD1E004C0FE0110
:1028A0000E9410142296C23CD107C9F7F894FFCFBA
:1028B000006169723100436865636B73756D2565EE
:1028C00072726F720054696D65206F757425657240
:1028D000726F7200556E6B6E6F776E256572726FD8
:1028E000720025003F006765747273006169727C35
:1028F00072655F72737C007C00676574616C6C004C
:102900006169727C72655F67617C00736574696F71
:10291000006169727C736574696F7C696E7075742F
:102920004F4B006169727C736574696F7C6F75745D
:102930007075744F4B00736574686C006169727CCC
:10294000736574686C7C6C6F774F4B006169727C47
:10295000736574686C7C686967684F4B0073657455
:1029600070776D006169727C73657470776D7C4FF0
:102970004B00736574706F73006169727C7365746A
:10298000706F737C4F4B00756E206B6F776E00FF1E
:102990000180004D03000000000000BD0D620E53D9
:0829A0000D840D640DAD0D0066
:00000001FF
