:100000000C94F4000C941C010C941C010C941C0125
:100010000C941C010C941C010C941C010C941C01EC
:100020000C941C010C941C010C941C010C941C01DC
:100030000C941C010C941C010C941C010C941C01CC
:100040000C9419280C941C010C949C2A0C94EA2AF8
:100050000C941C010C941C010C941C010C941C01AC
:100060000C941C010C941C010123456789ABCDEF56
:10007000FEDCBA9876543210F0E1D2C300000000E2
:10008000240027002A0000000000250028002B0083
:1000900000000000230026002900040404040404D6
:1000A0000404020202020202030303030303010227
:1000B00004081020408001020408102001020408F6
:1000C00010200000000700020100000304060000E9
:1000D00000000000000000407A10F35A00A0724EA9
:1000E00018090010A5D4E80000E87648170000E4DD
:1000F0000B54020000CA9A3B000000E1F505000025
:1001000080969800000040420F000000A086010089
:100110000000102700000000E80300000000640059
:10012000000000000A0000000000010000000000C4
:100130002C76D888DC674F0823DFC1DFAE59E1B1E8
:10014000B796E5E3E453C63AE651997696E8E6C2F7
:100150008426EB898C9B62ED407C6FFCEFBC9C9FFE
:1001600040F2BAA56FA5F490055A2AF75C936B6C20
:10017000F9676DC11BFCE0E40D47FEF520E6B50014
:10018000D0ED902E0300943577050080841E080082
:1001900000204E0A000000C80C333333330F986E32
:1001A00012831141EF8D2114893BE65516CFFEE6EF
:1001B000DB18D1844B381BF77C1D901DA4BBE424B5
:1001C000203284725E228100C9F124ECA1E53D2732
:1001D0004505940AB81087130316FB17D419992301
:1001E000CD23562CB82C3E0511241FBECFEFD8E0EE
:1001F000DEBFCDBF13E0A0E0B1E0EEEEF8E602C056
:1002000005900D92AC3DB107D9F717E0ACEDB3E026
:1002100001C01D92AB30B107E1F711E0C6EED1E0AD
:1002200004C02297FE010E942F34C03DD107C9F7B8
:100230000E94312D0C946A340C940000EF92FF92CE
:100240000F931F93F22FF02E47FD02C0E4E001C090
:10025000E4E1242F332727FD309537FF03C0309585
:1002600021953F4F4F2D512F0F2FEE2E0E94A502AB
:100270008F2D912F1F910F91FF90EF900895A0E087
:10028000B0E0E5E4F1E00C943B34EC01A880B980E7
:10029000CA80DB80A114B104C104D10441F484E21A
:1002A000A82E89EDB82E8BE5C82E87E0D82EC60182
:1002B000B5012DE133EF41E050E00E94FE3327EA23
:1002C00031E440E050E00E94AA337B018C01C6017A
:1002D000B5012DE133EF41E050E00E94FE33CA0149
:1002E000B9012CEE34EF4FEF5FEF0E94AA336E0D91
:1002F0007F1D801F911F97FF04C061507040804098
:100300009048688379838A839B839B01AC015F77E4
:10031000B901CA01CDB7DEB7EAE00C9457340E94A8
:100320003F01089585E293E00E943F0108956093A4
:100330002503709326038093270390932803089541
:100340001F93FC0199278827BC01E8941191103272
:10035000E9F3193010F01E30C8F31B3251F01D3292
:1003600049F4689406C00E949002610F711D811DBE
:10037000911D119110531A30B0F33EF49095809571
:10038000709561957F4F8F4F9F4F1F910895FB018F
:10039000DC0102C005900D9241505040D8F70895FD
:1003A0004CED53E00E943D020895FB01DC0104C0C6
:1003B0008D910190801921F441505040C8F7881B5D
:1003C000990B0895FB01DC0102C001900D92415090
:1003D0005040D8F70895FB01DC010D900020E9F7AB
:1003E000119701900D920020E1F70895FB01DC01C7
:1003F0008D91019080190110D9F3990B0895FB019B
:10040000DC0101900D920020E1F70895FB01DC0171
:100410004150504030F08D910190801919F4002026
:10042000B9F7881B990B0895FB01DC01415050403E
:1004300048F001900D920020C9F701C01D92415073
:100440005040E0F70895FB0151915523A9F0BF01F9
:10045000DC014D9145174111E1F759F4CD010190AF
:10046000002049F04D9140154111C9F3FB014111A4
:10047000EFCF81E090E001970895009731F4DA0121
:100480008D919C91009709F40EC0DC01FB013D9118
:100490002191222319F03217C9F3FACF332331F413
:1004A000DA011D921C928827992708951197AF931E
:1004B000BF93FB013D912191321771F4332321F455
:1004C00088279927119702C01E921196FA01A193CD
:1004D000B0839F918F910895222369F7EACFFB01A2
:1004E0009F01E8944230C4F04532B4F44A3029F414
:1004F00097FB1EF4909581959F4F642F77270E945C
:100500001934805D8A330CF0895D8193CB010097AB
:10051000A1F716F45DE251931082C9010C94DF0437
:10052000592F482F372F262F660F771F881F991FA7
:10053000660F771F881F991F620F731F841F951FF7
:10054000660F771F881F991F0895A9E0B0E0EBEAB6
:10055000F2E00C9437346A01122FA02EBE2C2BE34C
:10056000201718F42CE3922E02C0902E9394AE0123
:100570004F5F5F4F27E0092D0E940704BC0189816E
:10058000E82EFF24C70189709070019711F4ADE245
:1005900009C0B1FE02C0ABE205C0B0FC02C0A0E0E1
:1005A00001C0A0E2E3FE3BC0AA2311F423E001C096
:1005B00024E0211710F020E002C0121B212FEB2CA9
:1005C000B4FE02C0322F0AC0F601322F80E202C010
:1005D000819331503323E1F7C20ED11CAA2319F0C5
:1005E000F601A1936F01F6013196E2FE05C09EE48B
:1005F000D6019C9381E404C09EE6D6019C9381E6DB
:1006000011968C9391833296DF01832F90E202C082
:100610009D9381508823E1F7E30FF11D40C0E2FE76
:1006200042C0AA2311F423E001C024E0211710F0F6
:1006300020E002C0121B212FEB2CB4FE02C0922F2F
:100640000AC0F601922F80E202C081939150992353
:10065000E1F7C20ED11CAA2319F0F601A1936F0194
:10066000F6013196E2FE08C089E4D6018C938EE44F
:1006700011968C9386E407C089E6D6018C938EE6AA
:1006800011968C9386E681833296DF01892F20E2D2
:1006900002C02D9381508823E1F7E90FF11D1082EC
:1006A0002EEF3FEFAFC0161617061CF041E050E0EA
:1006B00003C0AB014F5F5F4FAA2019F480E090E0C8
:1006C00003C08A2D90E0019620E030E0AA2311F0CB
:1006D00021E030E0240F351F280F391F812F90E0D3
:1006E0002817390714F020E002C0121B212F4B2DD0
:1006F00050E0CA0180719070B4FC0DC0B3FC0BC017
:10070000F601322F40E202C0419331503323E1F72A
:10071000C20ED11C01C0322FAA2319F0F601A193F9
:100720006F01892B11F0132F0AC0F601132F80E3FC
:1007300002C0819311501123E1F7C30ED11C092D82
:10074000060FBA8090E1892E912C8E209F20E4FE26
:1007500004C0F1E3BF1609F40150101614F001E0D3
:1007600003C0093008F008E09B0177FF02C020E0D9
:1007700030E0CB010196821B930BFE013196E80F0E
:10078000F91F8EE2F82E3B01601A71088A2D90E065
:1007900044275527481B590B8FEF2F3F380719F473
:1007A000D601FD926D01621773072CF06216730675
:1007B00014F4808101C080E3215030403196241729
:1007C000350724F0D6018D936D01E6CF2617370744
:1007D00049F4B5E3BB1528F0BB1621F4811491044C
:1007E00009F481E3F6018193D601812F90E202C0E2
:1007F0009C93815011968823D9F7E10FF11D108247
:1008000020E030E0C9012996EEE00C945334283002
:1008100008F027E03327DA01990F311D87FD916039
:1008200000966105710539F432602E5F3D9330E327
:100830002A95E1F708959F3F30F0803871056105F2
:1008400009F03C5F3C5F3D93913008F08068911D5A
:10085000DF93CF931F930F93FF92EF92192F987FFF
:100860009695E92F96959695E90FFF27E05DFE4F47
:1008700099273327EE24FF24A701E7010590089468
:10088000079428F4360FE71EF81E491F511D660F06
:10089000771F881F991F0694A1F70590079428F4E5
:1008A000E70EF81E491F561FC11D770F881F991F9D
:1008B000661F0694A1F70590079428F4F80E491FC7
:1008C000561FC71FD11D880F991F661F771F0694DB
:1008D000A1F70590079420F4490F561FC71FD81F92
:1008E000990F661F771F881F0694A9F784911095AA
:1008F000177041F0D695C79557954795F794E794AB
:100900001A95C1F7E6EDF0E06894159015913591D0
:100910006591959105907FE27395E118F10A430B7B
:10092000560BC90BD009C0F7E10CF11E431F561F2F
:10093000C91FD01D7EF4703311F48A95E6CFE89478
:10094000015030F0080F0AF40027021708F4202F96
:100950002395022F7A3328F079E37D932A95E9F7DE
:1009600010C07D932A9589F60694979567953795DB
:1009700017951794E118F10A430B560BC90BD009D0
:1009800098F023957E9173957A3308F070E37C9309
:100990002013B8F77E9170617D9330F0839571E3F9
:1009A0007D9370E32A95E1F71124EF90FF900F916A
:1009B0001F91CF91DF91992787FD90950895DC01D4
:1009C000FC01672F71917723E1F7329704C07C9186
:1009D0006D9370836291AE17BF07C8F3089581E0ED
:1009E0008093310408951092310408950F9381305B
:1009F000910569F56F5F7F4F09F03EC089E994E08A
:100A000060E040E020E000E00E94AC2C85EF93E045
:100A100060E071E048E550E00E94B72684E194E090
:100A200062E071E00E9437308BE194E062E071E0B7
:100A30000E94373082E294E062E071E00E94373039
:100A400089E294E062E071E00E94373015C0892BA2
:100A500099F46F5F7F4F81F489E294E00E949730B0
:100A600082E294E00E9497308BE194E00E949730FC
:100A700084E194E00E9497300F91089580E090E027
:100A80006FEF7FEF0E94F604089581E090E06FEF32
:100A90007FEF0E94F60408958F929F92AF92BF92CB
:100AA000CF92DF92EF92FF920F931F93DF93CF933A
:100AB000CDB7DEB7A6970FB6F894DEBF0FBECDBF99
:100AC0004C014B30510529F48EED93E00E947627BE
:100AD0000FC04531510529F48EED93E00E94162890
:100AE00007C046315105E1F48EED93E00E94B42732
:100AF0002FEF8F3F920731F0009791F08E5F9F4F5D
:100B000049F404C0C40163E071E007C0C40162E1BC
:100B100071E003C0C40161E271E00E94373057C048
:100B20006091DE037091DF038091E0039091E10317
:100B30002DE1E22EF12CEC0EFD1E45E022E08701B6
:100B40000E941E01BC015E010894A11CB11CC501DC
:100B50000E9437306091E2037091E3038091E403D7
:100B60009091E50345E022E00E941E01BC0198E05F
:100B7000C92ED12CCC0EDD1EC6010E94373086E175
:100B8000E82EF12CEC0EFD1EC701B5010E948C3041
:100B9000C7016FE271E00E94E42FB6010E940030AD
:100BA000BC018E01015F1F4FC8010E948130C70147
:100BB0000E949D30C401B8010E948130C8010E948A
:100BC0009730C6010E949730C5010E949730C4013A
:100BD000A6960FB6F894DEBF0FBECDBFCF91DF91C2
:100BE0001F910F91FF90EF90DF90CF90BF90AF904B
:100BF0009F908F9008950F931F93CF93DF93182F9B
:100C0000092F62E071E00E943730C0E0D0E08C2F05
:100C10000E943329BC01812F902F0E94862FC7305C
:100C2000D10521F0812F902F6CE203C0812F902FEE
:100C30006CE70E94B72F2196C830D10541F7C2E07A
:100C4000D0E08C2F0E94482ABC01812F902F0E9457
:100C5000862FC930D10529F0812F902F6CE20E9498
:100C6000B72F2196CA30D10561F7812F902FDF91E0
:100C7000CF911F910F910895EF92FF920F931F93C1
:100C8000DF93CF93CDB7DEB7EDB6FEB6AC014F5FC5
:100C90005F4F8DB79EB7841B950B0FB6F8949EBF20
:100CA0000FBE8DBF0DB71EB70F5F1F4F89E294E0D7
:100CB000B80120E030E00E94C02EC80161E371E07D
:100CC0000E94D001BC0100E010E015C0C80133E073
:100CD000880F991F3A95E1F7801B910B8C5E9B4F13
:100CE0000E9451300F5F1F4F80E090E061E371E0A0
:100CF0000E94D001BC016115710541F70FB6F8944F
:100D0000FEBE0FBEEDBECF91DF911F910F91FF9000
:100D1000EF900895BF92CF92DF92EF92FF920F93E0
:100D20001F93CF93DF93D82E8BE090E09C01629FBE
:100D3000C001639F900D729F900D11248C509E4FA7
:100D4000B82EC92E68E17CEF0E94C9336C5E7F4FDC
:100D50007B010027F7FC0095102FC0E0D0E08D2D1F
:100D600061E00E94F4298B2D9C2D0E94EE288D2D90
:100D700060E00E94F429C801B7010E9495282196DD
:100D8000C333D10561F7DF91CF911F910F91FF9090
:100D9000EF90DF90CF90BF9008952F923F924F92A7
:100DA0005F926F927F928F929F92AF92BF92CF92FB
:100DB000DF92EF92FF920F931F93DF93CF93CDB704
:100DC000DEB7C655D0400FB6F894DEBF0FBECDBF1C
:100DD0001C016B01E42E8DB79EB767969FAF8EAF57
:100DE00067978E010F5F1F4FC8010E94373089E25D
:100DF00094E0B8010E946A30C8010E9497308E01C9
:100E0000085F1F4FC80163E371E00E94373089E239
:100E100094E0B8010E94102FF82EC8010E9497306C
:100E2000FF2009F44EC05DB64EB68E2D90E00E94B4
:100E30003C068BE194E00E94AF2E4B015C0182E204
:100E400094E00E94AF2E6B017C015DE1652E712C58
:100E50006C0E7D1EC30169E371E00E9437308E0184
:100E6000015F1F4FC801B401A6010E944C05C301D8
:100E7000B8010E94CA2FC8010E94973049A15AA107
:100E80004F5F5F4F8DB79EB7841B950B0FB6F894DD
:100E90009EBF0FBE8DBF0DB71EB70F5F1F4FC301A3
:100EA000B80120E030E00E94C02E49A14F5FC1018F
:100EB000B8010E94D823C3010E949730252D342DFC
:100EC0004FC08E010A5E1F4FC80160E471E00E94AE
:100ED000373089E294E0B8010E94102FF82EC80143
:100EE0000E949730FF2009F441C0DDB6CEB64DE137
:100EF000E42EF12CEC0EFD1EC70167E471E00E94A8
:100F000037308E010C5D1F4FC8010E94FB05C701E1
:100F1000B8010E94CA2FC8010E94973049A15AA166
:100F20004F5F5F4F8DB79EB7841B950B0FB6F8943C
:100F30009EBF0FBE8DBF0DB71EB70F5F1F4FC701FE
:100F4000B80120E030E00E94C02E49A14F5FC101EE
:100F5000B8010E94D823C7010E9497302D2D3C2D47
:100F60000FB6F8943EBF0FBE2DBF32C18E01055D96
:100F70001F4FC8016EE471E00E94373089E294E0AF
:100F8000B8010E94102FF82EC8010E949730FF2050
:100F900011F18E2D90E00E943C0682E294E00E94C6
:100FA000AF2E672B61F48BE194E00E94AF2E862F69
:100FB00060E00E94B529C10164E571E040C08BE1A9
:100FC00094E00E94AF2E862F61E00E94B529C101F6
:100FD00063E671E0F6C08E010E5C1F4FC80163E747
:100FE00071E00E94373089E294E0B8010E94102F2E
:100FF000F82EC8010E949730FF2019F18E2D90E045
:101000000E943C0682E294E00E94AF2E672B61F4BE
:101010008BE194E00E94AF2E862F60E00E94F429BD
:10102000C10169E771E066C08BE194E00E94AF2ED8
:10103000862F61E00E94F429C10166E871E04EE06C
:10104000C5C08E01075C1F4FC80164E971E00E94B2
:10105000373089E294E0B8010E94102FF82EC801C1
:101060000E949730FF20B9F08E2D90E00E943C0640
:101070008BE194E00E94AF2E162F82E294E00E9452
:10108000AF2E9B01AC01812FB9010E945529C101EE
:101090006BE971E02FC08E01005C1F4FC80168EA48
:1010A00071E00E94373089E294E0B8010E94102F6D
:1010B000F82EC8010E949730FF20F1F08E2D90E0AD
:1010C0000E943C068BE194E00E94AF2E162F072F62
:1010D00082E294E00E94AF2E6B017C01812F61E0DF
:1010E0000E94B529812F902FB6010E948A06C10166
:1010F0006FEA71E04CE06AC08E01095B1F4FC801C6
:101100006CEB71E00E94373089E294E0B8010E94F4
:10111000102FF82EC8010E949730FF20F9F08E2D75
:1011200090E00E943C068BE194E00E94AF2E8B0180
:101130009C0180913004882369F0A801662757FD3F
:101140006095762F8FED96E00E94252BC10164EC0F
:1011500071E032C0C10166ED71E033C08E01025B07
:101160001F4FC80166EE71E00E94373089E294E0BB
:10117000B8010E94102FF82EC8010E949730FF205E
:1011800011F18E2D90E00E943C068091300488235E
:10119000A9F08FED96E060E40E94782D8FED96E047
:1011A0006BE174E00E94242E8FED96E06EE70E94C2
:1011B000782DC1016FEE71E041E108C0C10161E02D
:1011C00072E04FE003C0C101B6014E2D0E94D8234A
:1011D000109298041092970467968EAD9FAD679712
:1011E0000FB6F8949EBF0FBE8DBFCA5ADF4F0FB621
:1011F000F894DEBF0FBECDBFCF91DF911F910F914D
:10120000FF90EF90DF90CF90BF90AF909F908F9026
:101210007F906F905F904F903F902F900895DF9355
:10122000CF93CDB7DEB729970FB6F894DEBF0FBEC8
:10123000CDBFBC01DE011196E1E1F2E089E0019051
:101240000D928150E1F7CE0101960E94F60140E037
:1012500050E0009711F441E050E0CA0129960FB622
:10126000F894DEBF0FBECDBFCF91DF91089580917E
:101270003104882349F4109298041092970485EF62
:1012800093E00E94382654C080919704909198046E
:1012900080599140ACF0109298041092970485EF19
:1012A00093E06AE172E047E00E94D82385EF93E083
:1012B0000E941F26882321F485EF93E00E940F26C9
:1012C00085EF93E00E9425268FED96E00E94AC2BDF
:1012D000892B71F18FED96E00E94DD2B809329031D
:1012E000803419F41092960423C08E3799F48FED50
:1012F00096E062E374E00E94212E85EF93E062E3C2
:1013000074E0409196040E94D823109298041092A1
:1013100097040EC0A0919604EA2FF0E0EE5CFB4F1C
:101320008083AF5FA0939604B0E0AE5CBB4F1C928D
:1013300062E370E080E090E00E949528809197043D
:10134000909198040196909398048093970408953F
:101350000F931F93DF93CF93CDB7DEB768970FB688
:10136000F894DEBF0FBECDBF8FED96E040E855E2AA
:1013700060E070E00E94252B61E070E080E090E08A
:101380002EEF30E040E050E00E94802E6093EB03AF
:1013900061E070E080E090E02EEF30E040E050E06F
:1013A0000E94802E6093EC0361E070E080E090E0AA
:1013B0002EEF30E040E050E00E94802E6093ED037D
:1013C00061E070E080E090E02EEF30E040E050E03F
:1013D0000E94802E6093EE0361E070E080E090E078
:1013E0002EEF30E040E050E00E94802E6093EF034B
:1013F00061E070E080E090E02EEF30E040E050E00F
:101400000E94802E6093F00383EB94E06BEE73E018
:101410000E94FF14892B09F4FFCFCE01019663EBE4
:1014200074E00E9496138B818093F103CE0107969E
:1014300063EB74E00E9496138A858093F203CE01D9
:101440000D9663EB74E00E94961389898093F303F1
:101450008EEF8093F4038E010D5E1F4FC80161EF84
:1014600073E00E94162D83EB94E06BEE73E0A8010D
:101470000E94C71485EF93E06FEE74E00E94BD23D5
:1014800085EF93E06DEC76E00E94C12385EF93E059
:1014900063EF74E00E94C52385EF93E06FE079E08D
:1014A0000E94C92385EF93E00E94B42668EC70E0A7
:1014B00080E090E00E94952881E080933004689657
:1014C0000FB6F894DEBF0FBECDBFCF91DF911F9155
:1014D0000F9108958AE061E00E94F4298AE061E0BA
:1014E0000E94B5298CB580618CBD8CB580648CBDA3
:1014F0008DE061E00E94B5298BE061E00E94B52992
:101500000895FB0180E38083842F82958F704F7054
:101510004A3014F4405D01C0495C4183319788230F
:1015200011F0482FF1CF08950F938FE994E060E018
:1015300040E020E000E00E94AC2C0F9108950F9352
:101540001F938C01625E7F4F0E94162DC8011F9170
:101550000F9108950F931F938C016A5E7F4F0E9435
:10156000162DC8011F910F9108950F931F938C01A1
:101570006E5E7F4F0E94162DC8011F910F91089536
:101580000F931F938C01625F7F4F0E94162DC8013D
:101590001F910F9108952F923F924F925F926F92F9
:1015A0007F928F929F92AF92BF92CF92DF92EF92F3
:1015B000FF920F931F93DF93CF93CDB7DEB7E897DA
:1015C0000FB6F894DEBF0FBECDBF5C013A014B01F0
:1015D00029010E9461287B018C01F7E4CF2ED12CD8
:1015E000CA0CDB1C14C00E9461286E197F09800B95
:1015F000910B661677068806990618F477247A9474
:101600001AC262E370E080E090E00E949528C60173
:101610000E94481A1816190634F7C601BE01635F06
:101620007F4F42E250E00E94FA198D85823009F026
:10163000FEC12CE530E0A20EB31EF5018081918140
:1016400024EA3FEFA20EB31E8334910509F0EFC1E7
:1016500029893A894B895C89E52EFF2400271127C7
:10166000B22FAA2799278827E82AF92A0A2B1B2BA9
:10167000B42FA32F922F882780709070B070E82A23
:10168000F92A0A2B1B2B232F342F452F5527207087
:1016900040705070E22AF32A042B152BF201E082ED
:1016A000F18202831383B501685F7F4FCE01899673
:1016B00046E050E00E94D501009799F4F501808141
:1016C0009181A281B381E816F9060A071B0748F049
:1016D00084819581A681B7818E159F05A007B107EA
:1016E00028F4C6010E94C2197724A5C18D8D9E8D54
:1016F000AF8DB8A1F50186879787A08BB18B00E0ED
:1017000010E0C6010E941D1A0F5F1F4F0E3C11050D
:10171000C1F795012E5E3F4F38AF2FABC5014696FE
:101720009EAB8DABF5017E96FCABEBAB8AE1882ED0
:10173000912C8A0C9B1C95012A5D3F4F3AAB29AB3B
:10174000C5018A9698AB8FA702E2202E312C2A0C75
:101750003B1C772418E5412E512C4A0C5B1C5FC1C1
:10176000C6010E941D1A8333910509F414C1843304
:1017700091058CF48130910569F18230910524F452
:10178000892B09F44CC140C18330910551F1069772
:1017900009F03AC142C08A33910509F490C08B33F5
:1017A00091053CF48533910569F0C69709F02CC189
:1017B00050C08B33910509F4B8C08F3F910509F0F3
:1017C00023C12DC1C6010E941D1AC6010E941D1A07
:1017D000782E25C1C6010E941D1AC6016FA978ADD9
:1017E00062C0C6010E941D1A182FC6016DA97EA9EC
:1017F00044E050E00E94FA19EE24FF24012F10E08B
:101800000450104006C0C6010E941D1A0894E11C35
:10181000F11CE016F106BCF302C1C6010E941D1ABC
:10182000182FC6016BA97CA944E050E00E94FA1968
:10183000EE24FF24012F10E00450104006C0C60122
:101840000E941D1A0894E11CF11CE016F106BCF37D
:10185000E6C0C6010E941D1A182FF40180819181F3
:10186000A281B3810097A105B105D9F0CE010196FF
:10187000B4010E94162D2AED33E038872F83F20140
:10188000208131814281538129873A874B875C8748
:101890008B819C81AD81BE8182179307A407B50718
:1018A00059F4C601B40144E050E00E94FA19B7C0EF
:1018B000C6010E941D1A11501123D1F7B0C0C601F4
:1018C0000E941D1AC60169A97AA944E050E00E944D
:1018D000FA19F50126A137A140A551A5E52EFF244F
:1018E00000271127B22FAA2799278827E82AF92A43
:1018F0000A2B1B2BB42FA32F922F88278070907058
:10190000B070E82AF92A0A2B1B2B232F342F452FDE
:101910005527207040705070E22AF32A042B152BB3
:10192000E6A2F7A200A711A77AC0C6010E941D1A5D
:10193000C6016FA578A944E050E00E94FA19F501AC
:1019400022A533A544A555A5E52EFF240027112780
:10195000B22FAA2799278827E82AF92A0A2B1B2BB6
:10196000B42FA32F922F882780709070B070E82A30
:10197000F92A0A2B1B2B232F342F452F5527207094
:1019800040705070E22AF32A042B152BE2A6F3A62E
:1019900004A715A744C0C6010E941D1AC601B101C3
:1019A00044E050E00E94FA19F50122A133A144A1BC
:1019B00055A1E52EFF2400271127B22FAA2799272A
:1019C0008827E82AF92A0A2B1B2BB42FA32F922F42
:1019D000882780709070B070E82AF92A0A2B1B2B98
:1019E000232F342F452F5527207040705070E22A46
:1019F000F32A042B152BE2A2F3A204A315A3E6A657
:101A0000F7A600AB11AB0BC0C6010E941D1A182F20
:101A100004C0C6010E941D1A11501123D1F7C6013E
:101A20000E94A619181619060CF49ACE01C0772444
:101A3000C6010E94C219872DE8960FB6F894DEBF42
:101A40000FBECDBFCF91DF911F910F91FF90EF900F
:101A5000DF90CF90BF90AF909F908F907F906F90CE
:101A60005F904F903F902F9008950E96FC0184E177
:101A7000DF011D928A95E9F708954F925F926F9268
:101A80007F928F929F92AF92BF92CF92DF92EF920E
:101A9000FF920F931F93DF93CF93CDB7DEB7E297FB
:101AA0000FB6F894DEBF0FBECDBF6C01462E3A01D3
:101AB000F3E18F2E912C8C0E9D1EE0E25E2EF40140
:101AC000252D11922A95E9F7CE0107966FEF4FEF7A
:101AD0002FEF0FEF0E94AC2C77E4A72EB12CAC0CAB
:101AE000BD1C8AED93E09E878D8789859A85AB859D
:101AF000BC858F87988BA98BBA8BC501BE01635FAC
:101B00007F4F43E450E00E94BC1A8F5F9F4F09F45F
:101B1000F3C081E08B8B8C8B86E08D8B1E8AF60167
:101B20002481358146815781E52EFF240027112726
:101B3000B22FAA2799278827E82AF92A0A2B1B2BD4
:101B4000B42FA32F922F882780709070B070E82A4E
:101B5000F92A0A2B1B2B232F342F452F55272070B2
:101B600040705070E22AF32A042B152BEB82FC8282
:101B70000D831E83EF8AF88E098F1A8F7B8E6C8EF1
:101B800080E890E09A8389839E8F8D8FC501B40190
:101B90004CE150E00E949C1AF40111925A94E9F72A
:101BA000A8E06A2E712C6C0C7D1CD401F30186E038
:101BB00001900D928150E1F78E010D5E1F4FC5011E
:101BC000B80140E150E00E949C1A80E2F8011192B5
:101BD0008A95E9F7EE24FF24902E012FC501692D87
:101BE000702F40E250E00E949C1A0894E11CF11C06
:101BF000F6E0EF16F10491F793E69B8B82E88C8B6D
:101C000083E58D8B9E8B85E38F8B91E0988F498E3A
:101C10008DE38A8F87E08B8F9C8FDE015D96F301C9
:101C200086E001900D928150E1F78CE08BA38CA3AC
:101C30008E010D5E1F4FCE01859662E272E00E941A
:101C4000FF01C601BE01655D7F4FF60143850E941D
:101C5000810AC601BE01635D7F4FF60144850E9483
:101C6000810AC601BE01615D7F4FF60145850E9474
:101C7000810AC501B8014EE150E00E949C1AF3E0D0
:101C80004F16F1F482E38B8B94E09C8BF6018685F2
:101C90008D8B87858E8B80898F8B8189888F86E35A
:101CA000898F9A8F828D8B8F838D8C8F848D8D8F72
:101CB000858D8E8FC501B8014CE050E00E949C1AC2
:101CC00087E38B8B96E09C8B81E08D8B83E08E8B02
:101CD0009F8B8FE0888F8AE3898F8BE38A8F8FEFCA
:101CE0008B8FC501BE016D5E7F4F49E050E00E94C1
:101CF0009C1AC5010E94B71AE2960FB6F894DEBF8F
:101D00000FBECDBFCF91DF911F910F91FF90EF904C
:101D1000DF90CF90BF90AF909F908F907F906F900B
:101D20005F904F9008952F923F924F925F926F92E3
:101D30007F928F929F92AF92BF92CF92DF92EF925B
:101D4000FF920F931F93DF93CF9300D000D0CDB7B6
:101D5000DEB78C0161E070E080E090E020ED37E0DC
:101D600040E050E00E94802ED80114966C931497A6
:101D700015967C93159716968C93169717969C93A9
:101D800017976C9311967C93119712968C931297D8
:101D900013969C9377E4472E512C400E511EC2019E
:101DA0000E944B1BC20164E470E00E94601B882308
:101DB00019F46624772422C10E9461284B015C013A
:101DC0006624772466E4C62ED12CC00ED11E5EE3B5
:101DD000252E312C200E311E42E0E42EFBC088233C
:101DE00009F5F80184819581A681B7810196A11D2D
:101DF000B11D84839583A683B7830E9461286819E7
:101E000079098A099B0928EE33E040E050E00E94FE
:101E1000DC33C80161E0A9010E943D0D81E0D601DB
:101E20008C93C2C0843001F5F80184819581A6812C
:101E3000B7810196A11DB11D84839583A683B783C5
:101E40000E946128681979098A099B0928EE33E004
:101E500040E050E00E94DC33C80163E0A9010E9429
:101E60003D0DD601EC92A0C0813069F5F1014081B1
:101E7000518162817381C8019E012F5F3F4F0E9493
:101E8000CB0AF82EF2E08F1709F089C089819A8178
:101E9000AB81BC81F80184839583A683B7830E94BC
:101EA0006128681979098A099B0928EE33E040E026
:101EB00050E00E94DC33C80163E0A9010E943D0D9F
:101EC000D601FC9271C0823009F06EC0F1014081F0
:101ED000518162817381C8019E012F5F3F4F0E9433
:101EE000CB0AF82EF5E08F1709F053C0E3E0D601D6
:101EF000EC93F80182A193A1A4A1B5A10097A1053B
:101F0000B10541F484E893E0A0E0B0E082A393A39C
:101F1000A4A3B5A3F80186A197A1A0A5B1A5009798
:101F2000A105B10561F482A193A1A4A1B5A1B695C3
:101F3000A7959795879586A397A3A0A7B1A7F80122
:101F400082A593A5A4A5B5A50097A105B10561F447
:101F500086A197A1A0A5B1A5880F991FAA1FBB1F95
:101F600082A793A7A4A7B5A7F80186A197A1A0A5CA
:101F7000B1A586A797A7A0ABB1AB82A593A5A4A551
:101F8000B5A582AB93ABA4ABB5ABA1E06A2E712C27
:101F90000BC0F6E08F1719F4D6011C9205C0BFEFF5
:101FA000FB1611F4F6011082F1E06F16710491F046
:101FB0000E946128681979098A099B09D801DA9673
:101FC0002D913D914D915C91DD972617370748077C
:101FD000590728F0F6018081833009F000CFC20153
:101FE0000E944B1BF80184819581A681B7810196DF
:101FF000A11DB11D84839583A683B783C3010F9070
:102000000F900F900F90CF91DF911F910F91FF9044
:10201000EF90DF90CF90BF90AF909F908F907F9088
:102020006F905F904F903F902F900895CF92DF92E6
:10203000EF92FF920F931F93CF93DF93EC01D62E75
:10204000C72E1AA21BA21CA21DA21EA21FA218A666
:1020500019A61AA61BA61CA61DA61EAA1FAA18AE64
:1020600019AE2AAF3BAF4CAF5DAFEE96E882F98276
:102070000A831B83EE978E01085F1F4F86E0F801ED
:1020800011928A95E9F7CE010E94350DD8012D2DC8
:102090003C2DC901FC0186E001900D928150E1F7D1
:1020A000CA5BDF4F1882C654D040CE010E94930E07
:1020B000DF91CF911F910F91FF90EF90DF90CF9024
:1020C00008959C01FB0182819381A481B581F9016E
:1020D00082839383A483B583178216820895CF9356
:1020E000DF93FB0101C0319680818823E1F7EB018A
:1020F000A0E0B0E020E030E021C06E3261F42F3F7C
:10210000310509F07CF5FA01EA0FFB1F22831196D5
:1021100020E030E012C0C901E3E0880F991FEA9582
:10212000E1F7220F331F820F931F262F332727FD3E
:10213000309520533040280F391F2196688166233F
:1021400019F0A430B105CCF22F3F310509F054F459
:10215000A430B1053CF4A40FB51F12962C9321E0D6
:1021600030E002C020E030E0C901DF91CF91089556
:102170000F9385EA94E060E040E020E000E00E94F8
:10218000AC2C0F9108952F923F924F925F926F92D5
:102190007F928F929F92AF92BF92CF92DF92EF92F7
:1021A000FF920F931F93DF93CF93CDB7DEB769975D
:1021B0000FB6F894DEBF0FBECDBF4C018B011A01E4
:1021C0000E9461282B013C01F8E0EF2EF12CE80C75
:1021D000F91C5801CC24DD2414C00E946128641924
:1021E000750986099709A616B706C806D90618F410
:1021F0002FEF3FEF0BC162E370E080E090E00E94C0
:102200009528C7010E94481A1816190634F7F401D8
:102210002281338144815581818D928DA38DB48D2E
:102220008A879B87AC87BD87281739074A075B07D2
:1022300009F0EAC0858D968DC59709F0E5C000C10B
:102240008E01025F1F4FC701B8014CE050E00E94B1
:10225000FA19F801528143815B834A83F401268194
:1022600037818E859F852817390711F457FD06C0E1
:10227000C7010E94C2192CEF3FEFC8C04F705270C7
:10228000452B31F0C7010E94C2192BEF3FEFBEC0B2
:10229000F801768067806114710441F0AA24BB24A0
:1022A00048012E010894411C511C28C0C7010E94FE
:1022B000C2192AEF3FEFAAC0C701B20141E050E0C6
:1022C0000E94FA198981882321F408C0C7010E945D
:1022D0001D1A8981815089838F5FC1F78981882385
:1022E00059F700E010E0C7010E941D1A0F5F1F4F51
:1022F00004301105C1F70894A11CB11CF401D4806D
:10230000C580AC14BD04C0F244245524C701BE01ED
:102310006F5F7F4F41E050E00E94FA199981892F49
:10232000807C61F4992321F40DC0C7010E941D1A1D
:102330008981815089838F5FC1F704C0C7010E94E2
:102340001D1A19828981882309F7C701BE016C5FB4
:102350007F4F42E050E00E94FA19C701BE016A5F58
:102360007F4F42E050E00E94FA1900E010E0C70100
:102370000E941D1A0F5F1F4F04301105C1F7C701DE
:10238000BE016E5F7F4F42E050E00E94FA19DC8090
:10239000CD80F1E0CF16D10419F5BE80AF8081E089
:1023A000A816B104E9F49A818B81049731F0C70132
:1023B0000E94C21927EF3FEF29C0E2E0F0E02E0EA5
:1023C0003F1EC701B10144E050E00E94FA1921E02C
:1023D00030E01CC0C7010E941D1A0F5F1F4F02C0D2
:1023E00000E010E09A808B800815190598F3089496
:1023F000411C511C4614570408F488CFC7010E94A1
:10240000C21926EF3FEF02C02EEF3FEFC9016996D8
:102410000FB6F894DEBF0FBECDBFCF91DF911F91F5
:102420000F91FF90EF90DF90CF90BF90AF909F9073
:102430008F907F906F905F904F903F902F90089576
:102440008AED93E099878887C7010E94A6190C97A7
:102450000CF0F6CE2DEF3FEFD9CF6F927F928F9297
:102460009F92AF92BF92CF92DF92EF92FF920F9323
:102470001F93DF93CF9300D00F92CDB7DEB78C01BF
:10248000F62EE72E0E946128F80177836683B8E074
:10249000CB2ED12CC00ED11E0A5F1F4FC601B80132
:1024A00042E050E00E949C1A81E090E09B838A8386
:1024B000A2E08A2E912C8C0E9D1EC601B40142E032
:1024C00050E00E949C1A80E091E09B838A83C601C1
:1024D000B40142E050E00E949C1A1B821A82C6019D
:1024E000B40142E050E00E949C1AC601B40142E0EF
:1024F00050E00E949C1AC601B40142E050E00E94E4
:102500009C1A2F2D3E2DC9018C017C013E0108949F
:10251000611C711C20C00894E11CF11CF701808132
:10252000882311F08E32B9F75701A01AB10A1A1494
:102530001B0474F48E2D801B8983C601B30141E016
:1025400050E00E949C1AC601B801A5010E949C1A85
:1025500087010F5F1F4FF7018081882311F07801F9
:10256000DDCF1982C601BE016F5F7F4F41E050E0B1
:102570000E949C1A00E011E01B830A83C601B4018B
:1025800042E050E00E949C1A1B830A83C601B401FA
:1025900042E050E00E949C1A81E090E00F900F9082
:1025A0000F90CF91DF911F910F91FF90EF90DF90EF
:1025B000CF90BF90AF909F908F907F906F90089535
:1025C0008F929F92AF92BF92CF92DF92EF92FF9243
:1025D0000F931F93DF93CF9300D000D000D0CDB7DF
:1025E000DEB76C017B014A010E946F10892B19F044
:1025F00001E010E067C0F6012281338144815581FA
:102600008091A7049091A804A091A904B091AA0474
:10261000281739074A075B0719F40EEF1FEF52C05E
:1026200018E0A12EB12CAC0CBD1C0E9461289B01AE
:10263000AC012F70307020503C4FC501B9010E9491
:10264000601B813019F000E010E03CC08AED93E09F
:102650009A838983F60182819381A481B5818B83DA
:102660009C83AD83BE83C501BE016F5F7F4F45E391
:1026700050E00E94BC1A8C01009709F1C601B70115
:102680000E942D128C010097D1F0C5010E94B71A4B
:102690008C010097A1F0EE24FF24C60168E873E1E5
:1026A000A4010E94C3108C010894E11CF11CF3E00A
:1026B000EF16F10421F08FEF0F3F180771F3C501FA
:1026C0000E944B1BC80126960FB6F894DEBF0FBEC2
:1026D000CDBFCF91DF911F910F91FF90EF90DF90D1
:1026E000CF90BF90AF909F908F900895DB01FC0139
:1026F0002AED33E03183208312962D913D914D9147
:102700005C911597228333834483558308950F93F7
:102710008BEB94E060E040E020E000E00E94AC2C15
:1027200083EB94E00E94272D0F910895EF92FF9282
:102730000F931F93182F092FE82EF92EC7010E941F
:10274000272D82E090E0E80EF91E8FE090E0B701BF
:1027500044E050E00E94E81E812F902F1F910F91BE
:10276000FF90EF9008956F927F928F929F92AF9219
:10277000BF92CF92DF92EF92FF920F931F933C0193
:102780005B016A0149018FE395E00E94A71F89E080
:1027900090E0B50146E050E00E94BC1D82E090E070
:1027A000C80ED91E8FE090E0B60144E050E00E94D0
:1027B000BC1D0E5F1F4F81E090E0B80144E050E087
:1027C0000E94BC1DE2E0F0E0EE0EFF1E85E090E00E
:1027D000B70144E050E00E94BC1DF4018281938166
:1027E000A481B581F30182839383A483B5831F9170
:1027F0000F91FF90EF90DF90CF90BF90AF909F90A0
:102800008F907F906F9008956F927F928F929F929A
:10281000AF92BF92CF92DF92EF92FF920F931F93EE
:10282000DF93CF93CDB7DEB76E970FB6F894DEBFC8
:102830000FBECDBF4C013B017A0169015801CE01A9
:1028400001966FEF4FEF2FEF00E00E94AC2C2AEDC6
:1028500033E038872F83F70182819381A481B5818A
:1028600089879A87AB87BC873E872D87F60182814F
:102870009381A481B5818F87988BA98BBA8B3C8B70
:102880002B8BF50182819381A481B5818D8B9E8BE9
:10289000AF8BB88F3A8F298F8B819C81AD81BE81A0
:1028A0008B8F9C8FAD8FBE8FC401B301AE01495F8A
:1028B0005F4F9E01235F3F4F8E010D5E1F4FE9E189
:1028C000EE2EF12CEC0EFD1E0E94B3136E960FB689
:1028D000F894DEBF0FBECDBFCF91DF911F910F9156
:1028E000FF90EF90DF90CF90BF90AF909F908F9030
:1028F0007F906F9008950F931F93DF93CF93CDB781
:10290000DEB768970FB6F894DEBF0FBECDBFFA01F1
:10291000D90122813381448155812B833C834D83AE
:102920005E83EAEDF3E0F887EF8329873A874B87E8
:102930005C87FE87ED8712962D913D914D915C91BC
:1029400015972F87388B498B5A8BFC8BEB8B21E0AB
:102950002E832B813C814D815E812D8B3E8B4F8B55
:10296000588FAE01495F5F4F9E01235F3F4F8E013D
:102970000D5E1F4F0E94041468960FB6F894DEBFD8
:102980000FBECDBFCF91DF911F910F910895DF93BF
:10299000CF93CDB7DEB762970FB6F894DEBF0FBE08
:1029A000CDBFFA0122813381448155812B833C8341
:1029B0004D835E83EAEDF3E0F887EF8329873A875A
:1029C0004B875C87FE87ED8721E02E832B813C813E
:1029D0004D815E812F87388B498B5A8BAE01495FC1
:1029E0005F4F9E01235F3F4F0E947B1462960FB69C
:1029F000F894DEBF0FBECDBFCF91DF910895CF9287
:102A0000DF92EF92FF920F931F93DF93CF93CDB797
:102A1000DEB76E970FB6F894DEBF0FBECDBF6C0168
:102A20007B018091C104882371F481EC94E00E94C1
:102A3000402D892B41F080E195E00E94C51A81EC80
:102A400094E00E944A2D89EC94E0F60197838683F6
:102A50008FE395E00E94A71F89E090E0B70146E070
:102A600050E00E94BC1DCE01019660E040E020E0F5
:102A700000E00E94AC2C8FE090E0BE016D5F7F4FC4
:102A800044E050E00E94BC1DF60186819781B701A9
:102A900020E63AEE40E050E0F0EAEF2EFFE0FF2EB5
:102AA000012D112D0E9416108C018130910509F025
:102AB00040C0F60166817781CE0107960E94C00A68
:102AC0008FE090E0BE01675F7F4F44E050E00E94DE
:102AD000BC1DF60166817781CE010D960E94AA0A7F
:102AE00081E090E0BE01615F7F4F44E050E00E94D2
:102AF000BC1DF60166817781CE0143960E94B50A1E
:102B000085E090E0BE016B5E7F4F44E050E00E94A4
:102B1000BC1DF60166817781CE0149960E949F0A0D
:102B20008B8D9C8DAD8DBE8DF60182839383A483A6
:102B3000B583C8016E960FB6F894DEBF0FBECDBF49
:102B4000CF91DF911F910F91FF90EF90DF90CF9089
:102B50000895FC011382128288EE93E0A0E0B0E0B9
:102B600084839583A683B78387E393E091838083EF
:102B700084E084870895FC011382128288EE93E03A
:102B8000A0E0B0E084839583A683B78387E393E0D6
:102B90009183808364870895DF93CF930F92CDB79D
:102BA000DEB7FC016983A081B18112962D913C9121
:102BB0001397BE016F5F7F4F41E050E0F901099527
:102BC0000F90CF91DF910895CF93DF93EC0107C071
:102BD000E881F9810680F781E02DCE010995E88131
:102BE000F9810480F581E02DCE010995892B81F7CB
:102BF000DF91CF91089520E0FC018485843009F0B5
:102C000021E0822F08950F938BE295E060E040E091
:102C100020E000E00E94AC2C0F910895FC01848517
:102C2000843011F480E00895982F80E08D5F9B4FF1
:102C30000E94E31D0895CF93DF93EC018C858430CF
:102C400011F480E019C0CE010E940E16843191F07B
:102C5000882381F0883171F08C3151F4E881F98159
:102C60000480F581E02DCE01099520E0892B19F033
:102C700021E001C020E0822FDF91CF910895EF92F3
:102C8000FF920F931F93CF93DF93EC018C858430D9
:102C900089F10E949B1B0E9461287B018C01CE015F
:102CA0000E940E16882301F10E9461286E197F0987
:102CB000800B910B685E734080409040A8F461E007
:102CC00070E080E090E00E949528E9CF8C850E941A
:102CD000ED1BEC85F0E0EE0FFF1FE555FB4F118279
:102CE000108284E08C8706C0CE010E940E168823D5
:102CF00081F3ECCFDF91CF911F910F91FF90EF9077
:102D000008950F931F93DF93CF930F92CDB7DEB744
:102D10008C01DC01ED91FC910480F581E02D099599
:102D2000892B19F42FEF3FEF0AC0F8018485BE010B
:102D30006F5F7F4F0E94521D8981282F30E0C901AB
:102D40000F90CF91DF911F910F910895FC01848521
:102D50000E94611D0895DF93CF930F92CDB7DEB728
:102D6000FC018485BE016F5F7F4F41E050E00E940F
:102D7000611D181619061CF02FEF3FEF03C0898163
:102D8000282F30E0C9010F90CF91DF910895FC0109
:102D90006485643019F420E030E005C08FE395E0ED
:102DA0000E94991E9C01C90108950F931F93CF9310
:102DB000DF938C01EA01FC018485843019F481E001
:102DC00090E007C00E94FB1C892B39F481E090E061
:102DD000F80193838283C0E0D0E0CE01DF91CF91F0
:102DE0001F910F910895AF92BF92CF92DF92EF9211
:102DF000FF920F931F93CF93DF937C016B015A01D6
:102E0000FC018485843009F056C0C0E0D0E003E0C6
:102E100014E0C8010E94E31D882321F0883111F0DD
:102E20008C3119F4F701C48706C0219600501F4F5A
:102E3000C430D10571F7F70124852430E1F1809188
:102E40002A0390912B03019690932B0380932A03DE
:102E5000892B31F480E094E090932B0380932A0334
:102E600040912A0350912B03822F61E020E00E94C1
:102E70002C1C82E090E0C80ED91EF7018485B601B3
:102E8000A5010E94901C09C061E070E080E090E024
:102E90000E949528C7010E940E16882321F484E021
:102EA000F701848708C0C7010E940E16873161F7B9
:102EB00021E030E002C020E030E0C901DF91CF9195
:102EC0001F910F91FF90EF90DF90CF90BF90AF9048
:102ED00008956F927F928F929F92AF92BF92CF92FE
:102EE000DF92EF92FF920F931F93DF93CF93CDB7B3
:102EF000DEB7E5970FB6F894DEBF0FBECDBF4C012D
:102F00005B013A0193E1E92EF12CEC0EFD1EC701A5
:102F10000E94272DCE014B960E94C51A6E0108947F
:102F2000C11CD11CC6010E94272D8E01095F1F4FB5
:102F3000C80163EB74E00E947613C701B8010E94D8
:102F40006110C701B501A6010E94E0129C01813009
:102F50009105C9F4D401ED91FC910484F585E02D2F
:102F60008AED93E09E878D878B819C81AD81BE81A8
:102F70008F87988BA98BBA8BC401BE01635F7F4F8B
:102F8000A30109959C01C901E5960FB6F894DEBF2F
:102F90000FBECDBFCF91DF911F910F91FF90EF90AA
:102FA000DF90CF90BF90AF909F908F907F906F9069
:102FB0000895FC011382128283E593E0918380835C
:102FC000758364830895DF93CF930F92CDB7DEB7F7
:102FD000FC016983A081B18112962D913C911397D8
:102FE000BE016F5F7F4F41E050E0F90109950F90FE
:102FF000CF91DF9108950F9381E395E060E040E089
:1030000020E000E00E94AC2C0F9108958F929F92D7
:10301000BF92CF92DF92EF92FF920F931F93DF93B5
:10302000CF93CDB7DEB72D970FB6F894DEBF0FBEA6
:10303000CDBF7C010BEA14E088249924BB246E01E7
:103040000894C11CD11CC6016B2D0E94BB15D80170
:103050002D913C91F7018481958128173907B1F4AE
:10306000C6010E940E16843121F481E0882E912C35
:103070000DC0C6010E940E168C3141F4C6010E949B
:10308000C716892B19F4C6010E943F16B3940E5F30
:103090001F4FF4E0BF16B9F6892841F4D701ED912E
:1030A000FC910480F581E02DC70109952D960FB69E
:1030B000F894DEBF0FBECDBFCF91DF911F910F916E
:1030C000FF90EF90DF90CF90BF909F908F900895EA
:1030D0004F925F926F927F928F929F92AF92BF9228
:1030E000DF92EF92FF920F931F93DF93CF93CDB7B1
:1030F000DEB72D970FB6F894DEBF0FBECDBF4C01E3
:103100002B013A010E9406189BEAE92E94E0F92E61
:1031100000E010E0DD245E010894A11CB11CC50193
:103120006D2D0E94BB15F70120813181F40184814E
:1031300095812817390761F4C5010E940E16873161
:1031400039F4C501B201A3010E94D516080F191F59
:10315000D39482E090E0E80EF91E94E0D916F9F6D7
:10316000C8012D960FB6F894DEBF0FBECDBFCF912C
:10317000DF911F910F91FF90EF90DF90BF90AF9084
:103180009F908F907F906F905F904F9008959F9247
:10319000AF92BF92CF92DF92EF92FF920F931F9365
:1031A000DF93CF93CDB7DEB72D970FB6F894DEBF80
:1031B0000FBECDBFC82E992E5B01CB010E94061811
:1031C0000BEA14E0DD247E010894E11CF11CC70128
:1031D0006D2D0E94BB15F80120813181F50184819C
:1031E00095812817390761F5C7010E940E168731AE
:1031F00029F0C7010E940E168C3111F5C7010E94FB
:10320000C716892BE9F0EC2DF92D8B819C819383D6
:1032100082838D819E81AF81B88584839583A683C7
:10322000B78389859A85AB85BC8580879187A2877E
:10323000B38787E393E0918380838D8584870BC078
:10324000D3940E5F1F4FF4E0DF1609F68C2D992DF5
:1032500064E00E94BB158C2D992D2D960FB6F89425
:10326000DEBF0FBECDBFCF91DF911F910F91FF90B9
:10327000EF90DF90CF90BF90AF909F900895CF9246
:10328000DF92EF92FF920F931F93DF93CF93CDB70F
:10329000DEB72D970FB6F894DEBF0FBECDBF6C0121
:1032A00000E010E07E010894E11CF11CC701602FD2
:1032B0000E94BB15C7010E940E168823B1F4F601C7
:1032C00044815581802F61E020E00E942C1C802FDA
:1032D0000E94AB1B000F111F05551B4FF601848187
:1032E0009581F8019183808305C00F5F1F4F0430E3
:1032F0001105E1F62D960FB6F894DEBF0FBECDBFD7
:10330000CF91DF911F910F91FF90EF90DF90CF90C1
:103310000895DC01ED91FC91008CF18DE02D099573
:103320000895DB01FC012AED33E0318320835196BF
:103330002D913D914D915C91549722833383448329
:1033400055830895FC01858996890895FC01818D36
:10335000928D0895DF93CF930F92CDB7DEB7FC0126
:103360006983A081B18112962D913C911397BE0182
:103370006F5F7F4F41E050E0F90109950F90CF91C9
:10338000DF910895CF93DF93EC0107C0E881F981C5
:103390000680F781E02DCE010995898D9A8D892BC4
:1033A000A9F7DF91CF9108950F9387E395E060E04F
:1033B00040E020E000E00E94AC2C0F910895DF93E4
:1033C000CF930F92CDB7DEB7FC01818D928D892B03
:1033D00019F42FEF3FEF09C08485BE016F5F7F4F67
:1033E0000E94521D8981282F30E0C9010F90CF9192
:1033F000DF910895CF93DF93EC019A01498D5A8DA7
:1034000041155105A1F02417350710F08C8502C035
:103410008C85A9010E94611D9C01181619063CF4B7
:10342000898D9A8D821B930B9A8F898F02C02FEF03
:103430003FEFC901DF91CF9108950F931F93DF9361
:10344000CF930F92CDB7DEB78C01FC01818D928DA9
:10345000892BA9F08485BE016F5F7F4F41E050E06A
:103460000E94611D1816190654F4F801818D928D81
:103470000197928F818F8981282F30E002C02FEF32
:103480003FEFC9010F90CF91DF911F910F910895E8
:10349000EF92FF920F931F93DF93CF93CDB7DEB7D9
:1034A00028970FB6F894DEBF0FBECDBF8C01DC01AC
:1034B000ED91FC910284F385E02D09958FE395E071
:1034C000F80164850E94991E892B19F420E030E0F0
:1034D00025C0D8011C968C917E010894E11CF11C3A
:1034E000B70148E050E00E94611D9C0118161906C2
:1034F000ACF4C8010F96B7010E94092D9D8180E0B0
:103500002E81820F911DF801968B858B9F8180E023
:103510002885820F911D928F818F9C01C901289669
:103520000FB6F894DEBF0FBECDBFCF91DF911F91D4
:103530000F91FF90EF9008950F931F938C01FB0163
:103540009A01DC0157966D917C9158971C968C914D
:10355000AF010E94CB1C9C01F8018789908D820FDE
:10356000931F908F878BC9011F910F910895FC01C4
:1035700084850E94C91B0895FC01108E178A6E5F16
:103580007F4F84850E94651C0895FC01138212827E
:1035900088EE93E0A0E0B0E084839583A683B783B0
:1035A0008DE593E09183808384E08487CF010F963B
:1035B0000E94272D08956F927F928F929F92AF92D3
:1035C000BF92CF92DF92EF92FF920F931F93DF9300
:1035D000CF93CDB7DEB7E5970FB6F894DEBF0FBE39
:1035E000CDBF4C015B013A0183E1E82EF12CEC0EDA
:1035F000FD1EC7010E94272DCE014B960E94C51AC1
:103600006E010894C11CD11CC6010E94272D8E0199
:10361000095F1F4FC80163EB74E00E947613C70176
:10362000B8010E946110C701B501A6010E94E01215
:103630009C0181309105C9F4D401ED91FC91008881
:10364000F189E02D8AED93E09E878D878B819C81A7
:10365000AD81BE818F87988BA98BBA8BC401BE01C7
:10366000635F7F4FA30109959C01C901E5960FB6E1
:10367000F894DEBF0FBECDBFCF91DF911F910F91A8
:10368000FF90EF90DF90CF90BF90AF909F908F9082
:103690007F906F900895CF93DF93EC018C858430F9
:1036A00061F00E94ED1BEC85F0E0EE0FFF1FE55589
:1036B000FB4F1182108284E08C87DF91CF910895B7
:1036C000CF92DF92EF92FF920F931F93CF93DF93EE
:1036D0007C016B01FC018485843019F5C0E0D0E0E9
:1036E00003E014E0C8010E94E31D882311F0883133
:1036F00019F4F701C48706C0219600501F4FC4304B
:10370000D10581F7F7018485843059F0D686C586C6
:10371000128E118E62E0A60120E00E942C1C81E036
:1037200001C080E0DF91CF911F910F91FF90EF904A
:10373000DF90CF900895682F8FE395E048E050E048
:103740000E94951F089590E0982F88278E5F9B4FC9
:103750000E94E31D08951F93182F982F80E08D5F1E
:103760009B4F0E94E31D833111F080E008C08FE37E
:1037700095E0612F42E050E00E94951F81E01F918B
:10378000089590E0982F88278E5F9B4F0E94A21D7E
:1037900008951F93182F8FE395E0612F40E250E0CA
:1037A0000E94951F0CC0812F0E94A31B83FF07C09E
:1037B000812F68E10E94C11B20E030E00BC0812F07
:1037C0000E94A31B84FFEFCF812F60E10E94C11BE9
:1037D00021E030E0C9011F9108951F93182F8FE356
:1037E00095E0612F40E150E00E94951F812F6FEF1F
:1037F0000E94C11B1F910895FF920F931F93F62EF5
:10380000672F082F10E00C5F1F4F102F0027C801F3
:1038100040960E94A21DC80141966F2D0E94A21DD4
:103820001F910F91FF900895FF920F931F93F62E13
:10383000672F082F10E00C5F1F4F102F0027C801C3
:1038400004960E94A21DC80105966F2D0E94A21D1C
:103850001F910F91FF900895FF920F931F93CF93A5
:10386000DF93082FF62EEA01122F862F8150853024
:1038700010F080E024C0802F0E94ED1B1F2980E003
:10388000902F9C5F612F0E94A21D209719F0802F1E
:10389000BE010BC060913D0570913E056F5F7F4F8B
:1038A00070933E0560933D05802F0E94141C8FE3AA
:1038B00095E0602F41E050E00E94951F81E0DF918C
:1038C000CF911F910F91FF9008951F93CF93DF9396
:1038D000182FFB01EA018081882349F48181882324
:1038E00031F48281882319F48381882391F0209711
:1038F00081F0912F80E0845F9B4FBF0144E050E056
:103900000E94BC1D812FBE010E94FC1B21E030E003
:1039100002C020E030E0C901DF91CF911F910895EE
:103920001F93CF93DF93182FFB01EA0180818F3F14
:1039300051F481818F3F91F482818F3F79F48381AB
:103940008F3F61F423C0882349F48181882331F4B7
:103950008281882319F483818823C1F02097B1F0F4
:10396000912F80E0845F9B4FBF0144E050E00E94B4
:10397000BC1D812FBE010E94FC1B8FE395E0612FCF
:1039800044E050E00E94951F81E001C080E0DF919B
:10399000CF911F910895AF92BF92DF92EF92FF9265
:1039A0000F931F93CF93DF93D82EEB015A01890118
:1039B0008FE395E06D2D0E94CC1E8017910710F0CB
:1039C000780106C08FE395E06D2D0E94CC1E7C012E
:1039D0008FE395E06D2DAE01950187010E94051ED4
:1039E000C701DF91CF911F910F91FF90EF90DF9072
:1039F000BF90AF900895AF92BF92DF92EF92FF9287
:103A00000F931F93CF93DF93D82E5B018A0188E039
:103A10004130580710F000E018E0DD2DC0E0CD5F28
:103A2000DB4F8FE395E06D2D0E94CC1E7C01CE0113
:103A30000E94E31D873129F08C3119F000E010E07D
:103A400003C0E016F10668F38FE395E06D2DA50144
:103A500098010E94761E8FE395E06D2D40E250E0C4
:103A60000E94951F0BC0CE010E94E31D882331F4F4
:103A70008D2D0E94ED1B00E010E009C08D2D0E94ED
:103A8000A31B84FFF0CF8D2D60E10E94C11BC801F4
:103A9000DF91CF911F910F91FF90EF90DF90BF903A
:103AA000AF9008950F93282FAB018FE395E0622F1D
:103AB00021E030E001E00E944A1F81E090E00F9198
:103AC0000895CF92DF92FF920F931F93CF93DF93CE
:103AD000F82E6B018A018FE395E06F2D0E94991EED
:103AE000EC01009769F49F2D80E08D5F9B4F0E9451
:103AF000E31D8431D9F08823C9F08C31B9F01FC09F
:103B0000081719070CF4E8011C161D067CF48FE356
:103B100095E06F2DA6019E0100E00E944A1F8FE3F1
:103B200095E06F2D40E450E00E94951FCE01DF919B
:103B3000CF911F910F91FF90DF90CF900895CFEF1D
:103B4000DFEFF4CF282F2A9880EF8EBD0DB407FE4B
:103B5000FDCF8EB59EBD0DB407FEFDCF8EB52EBD3B
:103B60000DB407FEFDCF8EB56EBD0DB407FEFDCFC3
:103B70008EB52A9A81E00895DC0120E030E090EFD4
:103B80001DC02A989EBD0DB407FEFDCF8EB5BEBDEB
:103B90000DB407FEFDCF8EB5AEBD0DB407FEFDCF53
:103BA0008EB5FB01E20FF31F80818EBD0DB407FEC1
:103BB000FDCF11968EB52A9A2F5F3F4F24173507F8
:103BC00000F3CA010895282F2A988FE08EBD0DB406
:103BD00007FEFDCF8EB59EBD0DB407FEFDCF8EB5A1
:103BE0002EBD0DB407FEFDCF8EB51EBC0DB407FE75
:103BF000FDCF8EB52A9A089590E00496982F8827D5
:103C0000860F971F0E94E31D08957F928F929F92C7
:103C1000AF92BF92CF92DF92EF92FF920F931F93DA
:103C2000CF93DF936C01762E7A0149015801862FDC
:103C300064E270E00E94FC1D182F872D65E270E0A1
:103C40000E94FC1DC82FD0E0912F80E0C82BD92BFB
:103C5000CE0DDF1DAE015770872D90E0880F991FA4
:103C6000C80ED91EF60120813181240F351FCA01EB
:103C70008A0D9B1D8150984098F000E018E0041BCD
:103C8000150BC901B401A8010E94BC1DA501401B70
:103C9000510BF60180819181080D191DB80103C0F7
:103CA000C901B401A5010E94BC1D7E01EA0CFB1CE8
:103CB000072D10E00C5F1F4F102F0027C8018496BE
:103CC0006F2D0E94A21DC80185966E2D0E94A21D17
:103CD000DF91CF911F910F91FF90EF90DF90CF90E8
:103CE000BF90AF909F908F907F9008950F931F93F8
:103CF000FA01890140E050E09F010E94051E1F91DA
:103D00000F9108950F931F93182F66E270E00E94A1
:103D1000FC1D082F812F67E270E00E94FC1D502FD0
:103D200040E0282F30E0242B352BC9011F910F9143
:103D30000895FF920F931F93CF93DF93F62EC0E069
:103D4000D0E08F2D0E94821E8C01009721F08F2DD4
:103D50000E94821EEC01C017D10799F7CE01DF91B6
:103D6000CF911F910F91FF9008950F931F93182FDC
:103D700060E270E00E94FC1D082F812F61E270E07C
:103D80000E94FC1D502F40E0282F30E0242B352BC3
:103D9000C9011F910F910895FF920F931F93CF9325
:103DA000DF93F62EC0E0D0E08F2D0E94B51E8C016F
:103DB000009721F08F2D0E94B51EEC01C017D1078E
:103DC00099F7CE01DF91CF911F910F91FF90089548
:103DD000DC0120E030E09FE01DC02A989EBD0DB4BC
:103DE00007FEFDCF8EB5BEBD0DB407FEFDCF8EB56F
:103DF000AEBD0DB407FEFDCF8EB51EBC0DB407FEE3
:103E0000FDCF11968EB5FB01E20FF31F80832A9A36
:103E10002F5F3F4F2417350700F3CA010895CF9253
:103E2000DF92EF92FF920F931F93CF93DF9369017D
:103E300078015770C62FD0E02496CC0FDD1FC80F35
:103E4000D91F28813981240F351FC801840F951F80
:103E50008150984088F000E018E0041B150BC90160
:103E6000B601A8010E94E81EE01AF10A8881998132
:103E70000C0D1D1DB80102C0C901B601A7010E94A9
:103E8000E81EDF91CF911F910F91FF90EF90DF908F
:103E9000CF9008958F929F92AF92BF92CF92DF9270
:103EA000EF92FF920F931F93CF93DF937C01A62E87
:103EB0006A014901B02E862F68E270E00E94FC1D65
:103EC000182F8A2D69E270E00E94FC1DC82FD0E0F7
:103ED000912F80E0C82BD92BC7016A2DAE01960126
:103EE00084010E940F1FBB2099F47E01E80CF91C8D
:103EF0000A2D10E00C5F1F4F102F0027C801889675
:103F00006F2D0E94A21DC80189966E2D0E94A21DD0
:103F1000DF91CF911F910F91FF90EF90DF90CF90A5
:103F2000BF90AF909F908F9008951F93162F962F5C
:103F300080E08F5F9B4F642F0E94A21D812F61E064
:103F400070E00E94FC1D8823C9F71F9108950F930C
:103F50001F93182F092F6CE271E080E090E00E941F
:103F600095280E946A0A229A80E090E060E80E9408
:103F7000A21D8BE190E065E50E94A21D8AE190E020
:103F800065E50E94A21D212F302FC901FC0180E0B0
:103F900090E4918380838050904E918780878050F9
:103FA0009841329620E68030920799F71F910F9141
:103FB00008958F929F92AF92BF92CF92DF92EF922D
:103FC000FF920F931F93DF93CF93CDB7DEB7279761
:103FD0000FB6F894DEBF0FBECDBF7C015B016A0156
:103FE00060E070E000E010E04E010894811C911C3C
:103FF00052C0F401E60FF71FD5018C9180836F5FEB
:104000007F4F6330710509F043C0E981AE2FA6955B
:10401000A695AC838A81E370E295E07F282F2295F4
:104020002F70E20FED832B818F70880F880F422F46
:104030004295469546954370840F8E832F732F8348
:10404000B701600F711FB0E0A358BC4F4C91DB016A
:104050004C93D8011196B7016A0F7B1FF0E0E3582B
:10406000FC4F4081FB0140831196AE0DBF1D90E0D7
:1040700083589C4FFC0180818C9330E023583C4F47
:10408000F901808111968C930C5F1F4F60E070E006
:104090000894A11CB11C0894C108D108FFEFCF16E9
:1040A000FFEFDF0609F0A5CF6115710509F44BC0DC
:1040B000FE013196E60FF71FCB0102C01192019667
:1040C00083309105DCF38981982F969596959C8392
:1040D0009A8183708295807F292F22952F70820F7D
:1040E0008D832B819F70990F990F822F82958695D2
:1040F00086958370980F9E832F732F83D701A00F0F
:10410000B11F20E030E0AE014C5F5F4FFA01E20FDB
:10411000F31FE081F0E0E358FC4F80818D930F5F47
:104120001F4F2F5F3F4F6217730784F7CB01F701D3
:10413000E00FF11F2DE304C021930F5F1F4F019685
:1041400083309105CCF3E00EF11ED7011C92C8011B
:1041500027960FB6F894DEBF0FBECDBFCF91DF918B
:104160001F910F91FF90EF90DF90CF90BF90AF9095
:104170009F908F9008952F923F924F925F926F92EF
:104180007F928F929F92AF92BF92CF92DF92EF92E7
:10419000FF920F931F93DF93CF93CDB7DEB7629754
:1041A0000FB6F894DEBF0FBECDBF8B5B9F4FDC0117
:1041B0002D913D914D915D912D833E834F83588785
:1041C0002D903D904D905D906D907D908D909D9047
:1041D0002D913D914D915D9129833A834B835C8371
:1041E0002D913D914D915C9113972B873C874D8785
:1041F0005E87A555B040B88BAF871A86198619859A
:10420000103108F469C069857A856F7070706F5FCE
:104210007F4F660F771F660F771FEF85F8896E0F48
:104220007F1FA985BA851D96AF70B0701196AA0F31
:10423000BB1FAA0FBB1FAE0FBF1F89859A850896AB
:104240008F7090700196880F991F880F991F8E0F9D
:104250009F1F2D913D914D915C91FC018081918139
:10426000A281B381282739274A275B27FB01808158
:104270009181A281B381282739274A275B27E985C5
:10428000FA853296EF70F0703196EE0FFF1FEE0F49
:10429000FF1F8F859889E80FF91F80819181A28186
:1042A000B381282739274A275B27DA01C901880FFC
:1042B000991FAA1FBB1F222757FD23953327442789
:1042C0005527822B932BA42BB52BFB018083918345
:1042D000A283B3831431C8F429813A814B815C8174
:1042E00026253725482559252221332144215521CA
:1042F00089819A81AB81BC81282739274A275B278E
:10430000275636484D47554A46C0183298F4A401FE
:104310009301222533254425552589819A81AB8136
:10432000BC81282739274A275B272F55344146422D
:10433000514931C01C33E8F4A401930122293329E7
:104340004429552989819A81AB81BC81282339234D
:104350004A235B23D401C30182219321A421B521E7
:10436000282B392B4A2B5B2B24523344444E504785
:1043700012C0A401930122253325442555258981A6
:104380009A81AB81BC81282739274A275B272A528B
:104390003E434D495543ED80FE800F811885EBE18A
:1043A00016950795F794E794EA95D1F78D819E814C
:1043B000AF81B88575E0880F991FAA1FBB1F7A953A
:1043C000D1F7E82AF92A0A2B1B2B8B859C85AD8512
:1043D000BE85E80EF91E0A1F1B1FE985FA85EF70DE
:1043E000F0703196EE0FFF1FEE0FFF1FAF85B889FB
:1043F000EA0FFB1F80819181A281B381E80EF91E33
:104400000A1F1B1FE20EF31E041F151F620151013C
:104410009EE1AA0CBB1CCC1CDD1C9A95D1F782E056
:1044200056944794379427948A95D1F7A228B328B5
:10443000C428D528E985FA853196FA87E987298144
:104440003A814B815C812B873C874D875E87B30126
:10445000898A9A8A2D803E804F805884E035F10504
:1044600089F0C701D8018D839E83AF83B88735015A
:10447000460149895A89CB01DA0189839A83AB8342
:10448000BC83BDCEEF85F889EB5BFF4F80819181C6
:10449000A281B381E80EF91E0A1F1B1FE082F18280
:1044A000028313836F857889675B7F4FFB0180816F
:1044B0009181A281B3812D813E814F815885820FE8
:1044C000931FA41FB51F80839183A283B383EF85BD
:1044D000F889E35BFF4F80819181A281B381A80EAF
:1044E000B91ECA1EDB1EA082B182C282D382EF85B2
:1044F000F889EF5AFF4F80819181A281B381860DA7
:10450000971DA81DB91D80839183A283B3836F85F6
:1045100078896B5A7F4FFB0180819181A281B381A1
:1045200029813A814B815C81820F931FA41FB51FA3
:1045300080839183A283B38362960FB6F894DEBF23
:104540000FBECDBFCF91DF911F910F91FF90EF90E4
:10455000DF90CF90BF90AF909F908F907F906F90A3
:104560005F904F903F902F900895CF93DF939C01E1
:10457000EC01CC5BDF4F988183E08927F901E80FDC
:10458000F11D64839F5F9883903421F4C9010E94D8
:10459000BB201882DF91CF910895FC01E75AFF4FAD
:1045A00020813181428153812F5F3F4F4F4F5F4FB9
:1045B00020833183428353830E94B52281E090E0BF
:1045C00008950F931F93CF93DF93EC0160E80E944F
:1045D000B5228E010C5B1F4F04C0CE0160E00E942B
:1045E000B522F80180818833C1F7CE0160E00E94D6
:1045F000B522CE0160E00E94B522CE0160E00E94AB
:10460000B5228E01075A1F4FF80120813181428166
:104610005381FDE15695479537952795FA95D1F742
:10462000CE01622F0E94B522F801208131814281A2
:104630005381E5E15695479537952795EA95D1F74A
:10464000CE01622F0E94B522F80120813181428182
:1046500053817DE056954795379527957A95D1F703
:10466000CE01622F0E94B522F80120813181428162
:10467000538165E056954795379527956A95D1F70B
:10468000CE01622F0E94B522F8016081660F660F8D
:10469000660FCE010E94B522DF91CF911F910F913D
:1046A0000895EF92FF920F931F93CF93DF93EC0146
:1046B0000E94E122FE01EB5BFF4F60E070E0208191
:1046C000318142815381B22FAA2799278827E52E6D
:1046D000FF2400271127E82AF92A0A2B1B2BB42FC5
:1046E000A32F922F882780709070B070E82AF92A43
:1046F0000A2B1B2B232F342F452F5527207040705A
:104700005070E22AF32A042B152BE192F1920193C7
:1047100011936F5F7F4F6530710589F69E012B5BAA
:104720003F4FC901DF91CF911F910F91FF90EF9003
:104730000895109252051092510582EC93E09093E7
:10474000500580934F0508950F931F938C018B5B49
:104750009F4F68E670E044E150E00E94C701075AAD
:104760001F4FF801108211821282138205511040EE
:10477000F80110821F910F910895FC01728F618FD3
:104780000895FC01708F678B0895FC01748F638F0F
:104790000895FC01768F658F08950F9388E496E065
:1047A00060E040E020E000E00E94AC2C0F91089512
:1047B000CF92DF92EF92FF920F931F93CF93DF93ED
:1047C000EC017B01142F8B899C89019711F080E00B
:1047D00020C06E01CE0161E80E94E317CE01612F77
:1047E0000E94E317C0E0D0E0012F10E008C0F701FD
:1047F000EC0FFD1FC60160810E94E3172196C017D0
:10480000D107ACF361E070E080E090E00E94952871
:1048100081E0DF91CF911F910F91FF90EF90DF909A
:10482000CF900895CF92DF92EF92FF920F931F9354
:10483000CF93DF936C01EC012696CE010E94AB165C
:10484000982F9F70909302061092010687FF03C075
:1048500081E080930106CE010E94AB16982F8F77DE
:1048600080930706813428F0CE0168E00E94CC15C1
:1048700050C0892F881F8827881F809300068823AF
:10488000A1F0CE010E94AB1680930306CE010E94D8
:10489000AB1680930406CE010E94AB1680930506EA
:1048A000CE010E94AB168093060688E0E82E86E0D3
:1048B000F82E00E010E01BC080910006882369F00C
:1048C000CE010E94AB16F801E370F070E050FA4F91
:1048D00093819827D7019C9305C0CE010E94AB1607
:1048E000F70180830F5F1F4F0894E11CF11C40917A
:1048F0000706842F90E008171907F4F2809101064B
:10490000882391F4C601069668E04AE050E00E94D0
:104910000F2ECE0162E00E94CC15CE0163E00E9412
:10492000CC15CE0161EF16C080910206813019F0DE
:10493000883091F40DC0D6015796ED91FC915897AF
:10494000309721F0C60168E076E0099581E005C066
:10495000CE0168E00E94CC1580E0DF91CF911F91DD
:104960000F91FF90EF90DF90CF9008952F923F929C
:104970004F925F926F927F928F929F92AF92BF926F
:10498000CF92DF92EF92FF920F931F93DF93CF931B
:10499000CDB7DEB7C055D1400FB6F894DEBF0FBE1D
:1049A000CDBF6C0136E0432E512C480E591EBB245E
:1049B000AA2499248824772410E0662400E021E5C5
:1049C000E22EF12CEC0EFD1E1E010894211C311C60
:1049D00086C0F701E00FF11D80830F5F8A3011F070
:1049E00007FF7DC0F701E00FF11D32971082BB2059
:1049F00051F4C70169E272E00E942302009719F0A6
:104A0000BB24B3946BC0AA2051F4C70162E372E0E7
:104A10000E942302009719F0AA24A3945FC0772074
:104A200051F4C7016FE372E00E942302009719F06E
:104A30007724739453C0882051F4C70167E472E06F
:104A40000E942302009719F08824839447C0112301
:104A5000C1F4C7016EE472E00E942302009789F05E
:104A6000C70162E672E00E94D00180E090E062E659
:104A700072E00E94D001BC01C1010E94FF0111E05F
:104A80002DC0992089F4C70164E672E00E942302D8
:104A9000009751F0C7016CE772E00E942302009773
:104AA00019F0992493941AC0C7016FE772E00E942D
:104AB0002302009799F0C70162E672E00E94D001DC
:104AC00080E090E062E672E00E94D001BC01CE017D
:104AD0008F529F4F0E94FF016624639400E0C20141
:104AE0000E94AB168F3F09F074CF662009F468C0AE
:104AF000D6015D96ED91FC915E97309741F0CE0125
:104B00008F529F4F60E80995892B09F459C0BB204B
:104B100009F456C0AA2009F453C0992009F450C0E2
:104B2000882009F44DC0772009F44AC0112309F404
:104B300047C08E010F5F1F4FC80168E972E00E94F5
:104B4000EB018FE495E00E94A4238FE495E0B80187
:104B50000E94212E8FE495E00E945123BC0191E533
:104B6000E92EF12CEC0EFD1EC70144E150E00E943D
:104B7000D91F86010A5F1F4FC8016DEB72E00E94CA
:104B8000212EC80160EE72E00E94212EC80165EF5F
:104B900072E00E94212EC8016BE073E00E94212E7A
:104BA000C801B7010E94212EC80162E273E00E9491
:104BB000212EC80162E273E00E94212E81E001C033
:104BC00080E0C05BDE4F0FB6F894DEBF0FBECDBFF6
:104BD000CF91DF911F910F91FF90EF90DF90CF90D9
:104BE000BF90AF909F908F907F906F905F904F900D
:104BF0003F902F9008950F931F938C010A5F1F4FD2
:104C0000C8010E94E41561E070E080E090E00E943D
:104C10009528C8010E943F161F910F910895CF93C8
:104C2000DF93EC010E94FB251C8A1B8AEB8DFC8D17
:104C3000309711F0CE010995DF91CF910895069636
:104C40000E941B16811181E00895CF93DF93EC0140
:104C500006960E94C716892B41F0CE010E941224AD
:104C6000882319F4CE010E940F26DF91CF91089579
:104C7000EF92FF920F931F93DF93CF93CDB7DEB7E1
:104C80006A970FB6F894DEBF0FBECDBF8C017E01D0
:104C90000894E11CF11CC7010E94A915CE010E96D3
:104CA000B8010E94C718888999899C838B838A8957
:104CB0009B89AC89BD898D839E83AF83B8878E899C
:104CC0009F89A88DB98D89879A87AB87BC878A8D84
:104CD0008D87C7010E94FB158823C9F1C7010E9477
:104CE000FB158823A1F1D80153968D919C9154977F
:104CF000892B69F58B819C8119969C938E931897CB
:104D00008D819E81AF81B885F80182879387A487C2
:104D1000B58789859A85AB85BC8586879787A08B63
:104D2000B18B8D85828BC8010E94B624882379F0CF
:104D300081E090E0D80154969C938E9353975996B6
:104D4000ED91FC915A97309711F0C80109956A9638
:104D50000FB6F894DEBF0FBECDBFCF91DF911F918C
:104D60000F91FF90EF9008950E943F190895EF92E0
:104D7000FF920F931F938C017B01BA010E94D917F8
:104D8000C80106960E94A915F801F68AE58A148AD8
:104D9000138A128E118E108E178A148E138E168E11
:104DA000158E1F910F91FF90EF9008956F927F9253
:104DB0008F929F92AF92BF92CF92DF92EF92FF922B
:104DC0000F931F93CF93DF936C01B62EFC011086D7
:104DD0001186128613861486862F61E00E94B529FB
:104DE0008B2D60E00E94F42964E170E080E090E0A7
:104DF0000E9495288B2D61E00E94F42988E290E0C2
:104E00000E94EE288B2D60E00E94B529C0E1D7E218
:104E100003C0209769F121978B2D0E94482A892B86
:104E2000C1F3C0E1D7E203C0209711F121978B2D88
:104E30000E94482A0197C1F304C02097C9F0219726
:104E400009C027E0A22E8824992491E0692E712CB4
:104E5000C0E1D7E28B2D0E94482A892B71F30E9472
:104E60006F287B018C01C0E1D7E206C0209719F4BE
:104E70002EEF3FEF2BC021978B2D0E94482A0197E0
:104E8000A9F30E946F286E197F09800B910B69327C
:104E900071058105910568F0F601E80DF11D93019A
:104EA0000A2C02C0220F331F0A94E2F78085822B5E
:104EB0008087AA2021F4839487E0A82E01C0AA94B9
:104EC0009394F8E29F1621F620E030E0C901DF91CB
:104ED000CF911F910F91FF90EF90DF90CF90BF90F7
:104EE000AF909F908F907F906F900895EF92FF9278
:104EF0000F931F93CF93DF93EC010E94D6267C0182
:104F0000009769F080E090ECA9E7B4EC888399837E
:104F1000AA83BB838C839D83AE83BF831DC008851A
:104F2000602F70E080E090E00E94B932688379835E
:104F30008A839B831A85612F70E080E090E00E9455
:104F4000B9326C837D838E839F83100F8C8581178C
:104F500019F0EE24EA94FE2CC701DF91CF911F9146
:104F60000F91FF90EF9008950F931F93CF93DF93CE
:104F7000EC010E94D6268C01009769F080E090EC4D
:104F8000A9E7B4EC88839983AA83BB838C839D8330
:104F9000AE83BF8345C0888569850E94572EA0E0F7
:104FA000B0E0BC01CD010E94B9322DEC3CEC4CECE0
:104FB0005DE30E944733688379838A839B838A8574
:104FC00087FF0FC08F776B850E94572EA0E0B0E05F
:104FD000BC01CD010E94B9322DEC3CEC4CEC5DEBF8
:104FE0000DC06B850E94572EA0E0B0E0BC01CD0142
:104FF0000E94B9322DEC3CEC4CEC5DE30E9447334F
:105000006C837D838E839F8389859885890F9A859C
:10501000890F9B85890F9C85981711F00FEF1FEF63
:10502000C801DF91CF911F910F9108950E94B4277D
:1050300008951F920F920FB60F9211242F933F9352
:105040008F939F93AF93BF93809152069091530695
:10505000A0915406B0915506309156060196A11DB7
:10506000B11D232F2D5F2D3720F02D570196A11D47
:10507000B11D209356068093520690935306A09339
:105080005406B093550680914E0690914F06A0911C
:105090005006B09151060196A11DB11D80934E0698
:1050A00090934F06A0935006B0935106BF91AF91D5
:1050B0009F918F913F912F910F900FBE0F901F9056
:1050C00018958FB7F894209152063091530640916D
:1050D0005406509155068FBFB901CA0108959FB774
:1050E000F89420914E0630914F0640915006509111
:1050F000510686B5A89B06C08F3F21F02F5F3F4F1A
:105100004F4F5F4F9FBF542F432F322F2227280F1F
:10511000311D411D511D82E0220F331F441F551FB9
:105120008A95D1F7B901CA0108959B01AC017FB7F7
:10513000F89480914E0690914F06A0915006B09140
:10514000510666B5A89B05C06F3F19F00196A11DD9
:10515000B11D7FBFBA2FA92F982F8827860F911DC9
:10516000A11DB11D62E0880F991FAA1FBB1F6A9580
:10517000D1F7BC012DC0FFB7F89480914E069091F5
:105180004F06A0915006B0915106E6B5A89B05C008
:10519000EF3F19F00196A11DB11DFFBFBA2FA92F36
:1051A000982F88278E0F911DA11DB11DE2E0880F59
:1051B000991FAA1FBB1FEA95D1F7861B970B885E24
:1051C0009340C8F2215030404040504068517C4FDD
:1051D000211531054105510571F60895019739F002
:1051E000880F991F880F991F02970197F1F708956B
:1051F000789484B5826084BD84B5816084BD85B5B2
:10520000826085BD85B5816085BDEEE6F0E0808178
:1052100081608083E1E8F0E0108280818260808399
:10522000808181608083E0E8F0E08081816080831C
:10523000E1EBF0E0808184608083E0EBF0E080814E
:1052400081608083EAE7F0E08081846080838081F0
:105250008260808380818160808380818068808398
:105260001092C1000895982F8E3008F09E509770CC
:1052700080912C038295880F880F807C892B8093E6
:105280007C0080917A00806480937A0080917A001B
:1052900086FDFCCF2091780040917900942F80E02A
:1052A00030E0282B392BC90108951F93CF93DF934A
:1052B000182FEB0161E00E94B529209709F44AC03C
:1052C000CF3FD10509F449C0E12FF0E0EE53FF4F85
:1052D00084918330C1F0843028F4813051F08230E1
:1052E000B1F50CC0863019F1873049F1843079F579
:1052F00014C084B5806884BDC7BD33C084B58062E6
:1053000084BDC8BD2EC080918000806880938000DD
:10531000D0938900C093880024C08091800080626F
:1053200080938000D0938B00C0938A001AC0809134
:10533000B00080688093B000C093B30012C0809129
:10534000B00080628093B000C093B4000AC0C0383F
:10535000D1051CF4812F60E002C0812F61E00E9422
:10536000F429DF91CF911F910895CF93DF93482FB8
:1053700050E0CA0182559F4FFC01349146565F4F61
:10538000FA018491882369F190E0880F991FFC014C
:10539000E458FF4FA591B491FC01EA57FF4FC59126
:1053A000D491662351F42FB7F8948C91932F909554
:1053B00089238C93888189230BC0623061F42FB7D5
:1053C000F8948C91932F909589238C938881832BCB
:1053D00088832FBF06C09FB7F8948C91832B8C9342
:1053E0009FBFDF91CF910895482F50E0CA018E539F
:1053F0009F4FFC012491CA0182559F4FFC0194915B
:1054000046565F4FFA013491332309F440C02223FA
:1054100051F1233071F0243028F42130A1F02230F2
:1054200011F514C02630B1F02730C1F02430D9F482
:1054300004C0809180008F7703C0809180008F7DB1
:105440008093800010C084B58F7702C084B58F7DB3
:1054500084BD09C08091B0008F7703C08091B000F7
:105460008F7D8093B000E32FF0E0EE0FFF1FEA572F
:10547000FF4FA591B4912FB7F894662321F48C9136
:105480009095892302C08C91892B8C932FBF08950E
:10549000682F70E0CB018E539F4FFC012491CB010C
:1054A00082559F4FFC01449166567F4FFB019491BA
:1054B000992319F420E030E03CC0222351F123303D
:1054C00071F0243028F42130A1F0223011F514C0FD
:1054D0002630B1F02730C1F02430D9F404C08091D7
:1054E00080008F7703C0809180008F7D8093800043
:1054F00010C084B58F7702C084B58F7D84BD09C08C
:105500008091B0008F7703C08091B0008F7D809331
:10551000B000892F90E0880F991F80579F4FFC01A2
:10552000A591B4918C9120E030E0842311F021E02A
:1055300030E0C901089508951F920F920FB60F929F
:1055400011242F933F934F938F939F93EF93FF9348
:105550008091C00082FD1DC04091C6002091970639
:10556000309198062F5F3F4F2F73307080919906CE
:1055700090919A062817390771F0E0919706F091FB
:105580009806E95AF94F408330939806209397067E
:1055900002C08091C600FF91EF919F918F914F9132
:1055A0003F912F910F900FBE0F901F901895E09193
:1055B000EB06F091EC06E05CFF4F81919191208128
:1055C0003181821B930B8F739070892B11F00E9495
:1055D0009B2A08951F920F920FB60F9211242F93BA
:1055E0003F938F939F93EF93FF932091DB0630912E
:1055F000DC068091DD069091DE062817390731F42C
:105600008091C1008F7D8093C10014C0E091DD06C0
:10561000F091DE06E556F94F20818091DD069091EC
:10562000DE0601968F7390709093DE068093DD0600
:105630002093C600FF91EF919F918F913F912F9101
:105640000F900FBE0F901F901895AF92BF92DF92F0
:10565000EF92FF920F931F93CF93DF93EC017A01A8
:105660008B01DD24403081EE580780E0680780E040
:10567000780711F0DD24D39491E0A92EB12CEC89A8
:10568000FD89DD2069F0C50108A002C0880F991FBF
:105690000A94E2F7808360E079E08DE390E005C052
:1056A000108260E874E88EE190E0A80197010E9402
:1056B000DC33215030404040504056954795379557
:1056C000279580E12030380720F0DD2011F0DD241F
:1056D000D6CFE889F9893083EA89FB89208319A22A
:1056E000EE89FF89408121E030E0C9010C8C02C0C5
:1056F000880F991F0A94E2F7482B4083EE89FF89AF
:105700004081C9010D8C02C0880F991F0A94E2F7ED
:10571000482B4083EE89FF894081C9010E8C02C06D
:10572000880F991F0A94E2F7482B4083EE89FF897E
:1057300080810F8C02C0220F331F0A94E2F720955C
:1057400028232083DF91CF911F910F91FF90EF903D
:10575000DF90BF90AF900895DC011C96ED91FC9115
:105760001D97E05CFF4F2191319180819181281B31
:10577000390B2F733070C9010895DC011C96ED912F
:10578000FC911D97E05CFF4F20813181E054F04097
:10579000DF01AE5BBF4F8D919C91119728173907A0
:1057A00019F42FEF3FEF07C08D919C91E80FF91F7F
:1057B0008081282F30E0C9010895DC011C96ED910D
:1057C000FC911D97E05CFF4F20813181E054F04057
:1057D000DF01AE5BBF4F8D919C9111972817390760
:1057E00019F42FEF3FEF10C08D919C911197E80FA6
:1057F000F91F20818D919C91119701968F73907064
:1058000011969C938E9330E0C9010895DC01919626
:105810008C919197882339F05496ED91FC9155978E
:10582000808186FFF9CF91961C920895CF93DF93E4
:10583000EC01EE85FF85E05CFF4F20813181E05473
:10584000F0402F5F3F4F2F733070DF01AE5BBF4FD3
:105850008D919C91119728173907D1F3E05CFF4F88
:1058600080819181E054F040E80FF91F6083EE855C
:10587000FF85E05CFF4F31832083EE89FF89208123
:1058800081E090E00F8C02C0880F991F0A94E2F724
:10589000282B208381E089A3EC89FD8980818064A5
:1058A000808381E090E0DF91CF9108951092E2062D
:1058B0001092E10688EE93E0A0E0B0E08093E3066A
:1058C0009093E406A093E506B093E6068AEC93E095
:1058D0009093E0068093DF0687E596E09093EC06D0
:1058E0008093EB068BE996E09093EE068093ED06AD
:1058F00085EC90E09093F0068093EF0684EC90E0C6
:105900009093F2068093F10680EC90E09093F40679
:105910008093F30681EC90E09093F6068093F50671
:1059200082EC90E09093F8068093F70686EC90E086
:105930009093FA068093F90684E08093FB0683E057
:105940008093FC0687E08093FD0685E08093FE0649
:1059500081E08093FF0608950F93FC018AED93E0A8
:105960009183808362834383248305830F91089509
:105970008AED93E09093020780930107109203074A
:1059800010920407109205071092060708958F924F
:105990009F92AF92BF92CF92DF92EF92FF920F93BE
:1059A0001F93CF93DF934C016B017C01AA24BB248E
:1059B000C0E0D0E0C601F70162814AE050E00E94F9
:1059C0000F2E8C01C6016EE20E94782D080F191F60
:1059D000A00EB11E21960894E11CF11CC330D10524
:1059E00049F7C601F40165814AE050E00E940F2E9C
:1059F0009501280F391FC901DF91CF911F910F9198
:105A0000FF90EF90DF90CF90BF90AF909F908F90DE
:105A100008959C01FB0180819181A281B381F901EC
:105A200082839383A483B583C90108959C01FB01FC
:105A30008AED93E0D9018D939C9380819181A2811D
:105A4000B381F90182839383A483B5830895FC0114
:105A50008AED93E0918380831282138214821582EF
:105A60000895CF93DF930E94F8280E94A809C7EDFC
:105A7000DAE20E9437092097E1F30E94D72AF9CF92
:105A8000FC0120E030E08081882311F421E030E047
:105A9000C9010895FC0181E080830895CF92DF92CF
:105AA000EF92FF920F931F93CF93DF937C016B01D3
:105AB0008A01C0E0D0E00FC0D6016D916D01D70121
:105AC000ED91FC910190F081E02DC7010995C80F7F
:105AD000D91F015010400115110571F7CE01DF915A
